:020000040800F2
:10400000700A0020554200086F4900085F4200080E
:104010006D490008CB440008A54E000800000000D0
:1040200000000000000000000000000067420008DF
:1040300081480008000000006B4200086D42000843
:104040006F4200086F4200086F4200086F4200088C
:104050006F4200086F4200086F4200086F4200087C
:104060006F4200086F4200086F4200086F4200086C
:104070006F4200086F4200086F4200086F4200085C
:104080006F4200086F4200086F4200086F4200084C
:104090006F4200086F4200086F4200086F4200083C
:1040A0006F4200086F4200086F4200086F4200082C
:1040B0006F4200086F4200086F4200086F4200081C
:1040C0006F4200086F4200086F4200086F4200080C
:1040D0006F4200087D4C00086F4200086F420008E4
:1040E0006F4200086F4200086F4200086F420008EC
:1040F0006F4200086F4200086F4200086F420008DC
:104100006F4200086F4200086F4200086F420008CB
:104110006F4200086F4200086F4200086F420008BB
:104120006F4200086F4200086F4200086F420008AB
:104130006F4200086F4200086F4200086F4200089B
:104140006F4200086F4200086F4200086F4200088B
:104150006F4200086F420008CD4400086F4200081B
:104160006F4200086F4200086F4200086F4200086B
:104170006F4200086F4200086F4200086F4200085B
:104180006F4200086F42000800F002F800F052F899
:1041900014A696E8000CB244B344DA4501D100F00D
:1041A00049F8BAE80F000FA696E83000A5EB040521
:1041B00004EB0607AAEB0704A7F101074FEA151560
:1041C0004FEA3414A4F10104AC4201D300F032F8F8
:1041D00013F0010F18BFFB1A43F0010300F001F8C0
:1041E000DBE71847100E0000300E0000103A24BF25
:1041F00078C878C1FAD8520724BF30C830C144BF4C
:1042000004680C6070470000704700000023002421
:1042100000250026103A28BF78C1FBD8520728BFD6
:1042200030C148BF0B6070471FB500F0CDFE1FBD09
:1042300010B510BD00F010F91146FFF7F5FF00F0C2
:1042400073FE00F02EF903B4FFF7F2FF03BC00F099
:1042500035F900000948804709480047FEE7FEE7B6
:10426000FEE7FEE7FEE7FEE7FEE7FEE7FEE7FEE726
:1042700004480549054A064B70470000094B0008F1
:104280008941000870040020700A00207006002098
:104290007006002010B5431C02E010F8011B71B13C
:1042A0008107FAD14FF0013202C88C1A8C4314EA0C
:1042B000C211F9D0C01A0A0603D0C01E10BDC01A20
:1042C00010BD0A0401D0801E10BD0902FCD0401EA2
:1042D00010BD032A40F2308010F0030C00F015806E
:1042E00011F8013BBCF1020F624498BF11F801CBF9
:1042F00000F8013B38BF11F8013BA2F1040298BF5E
:1043000000F801CB38BF00F8013B11F0030300F0C7
:104310007180083AC0F0088051F8043B083A51F81F
:1043200004CBA0E80810F5E7121D5CBF51F8043B70
:1043300040F8043BAFF30080D20724BF11F8013BE3
:1043400011F801CB48BF11F8012B24BF00F8013B45
:1043500000F801CB48BF00F8012B70474FF0000276
:104360000429C0F0128010F0030C00F01B80CCF187
:10437000040CBCF1020F18BF00F8012BA8BF20F8F5
:10438000022BA1EB0C0100F00DB85FEAC17C24BF49
:1043900000F8012B00F8012B48BF00F8012B7047F3
:1043A0004FF0000200B5134694469646203922BFCE
:1043B000A0E80C50A0E80C50B1F12001BFF4F7AF19
:1043C000090728BFA0E80C5048BF0CC05DF804EBFB
:1043D000890028BF40F8042B08BF704748BF20F869
:1043E000022B11F0804F18BF00F8012B7047704767
:1043F0007047704710B5203AC0F00B80B1E81850F4
:10440000A0E81850B1E81850A0E81850203ABFF4BE
:10441000F5AF5FEA027C24BFB1E81850A0E818505D
:1044200044BF18C918C0BDE810405FEA827C24BFB1
:1044300051F8043B40F8043B08BF7047D20728BF3F
:1044400031F8023B48BF11F8012B28BF20F8023B8E
:1044500048BF00F8012B7047754600F02BF8AE46B8
:1044600005006946534620F00700854618B020B580
:10447000FFF7FEFEBDE820404FF000064FF00007BA
:104480004FF000084FF0000BAC46ACE8C009ACE8B8
:10449000C009ACE8C009ACE8C00921F007018D46AD
:1044A000704710B50446AFF300802046BDE81040C9
:1044B000FFF7C9BE004870470800002001491820D6
:1044C000ABBEFEE7260002007047FEE710B5EB4CDE
:1044D0004FF02051204600F0C5F820B100F090FACE
:1044E000E4480121016010BD10B56D4A564B0A40E9
:1044F0001C1D8900584905D4A04228BF01F58061E0
:104500000A6010BDA04238BF0B1D1A6010BD00BF6D
:104510000268002922F0010218BF013202607047D0
:10452000016821F0010101600021016041608160AA
:10453000C160016121214161D04988422FD03449B5
:10454000884230D03349884231D03349884232D012
:104550003249884233D03249884233D03149884287
:1045600033D03149884233D03049884235D0304940
:10457000884235D02F49884236D02F49884237D0DB
:104580002E4988423AD0864988423AD02C498842FE
:104590003AD02C4988423AD12F483D2136E02A486A
:1045A0004FF03D5132E02C484FF474612EE02A4820
:1045B0004FF474112AE028484FF0746126E0264831
:1045C000244908E02448224905E023481F4902E025
:1045D00021484FF03D51416070471F483D210AE09E
:1045E0001D484FF4746106E01B484FF4741102E05B
:1045F00019484FF07461C0F800147047124815490B
:1046000004E01148124901E00F4810490160704769
:1046100028600240406002405860024070600240E2
:1046200088600240A0600240B8600240106402400E
:1046300028640240406402405864024070640240B2
:10464000A0640240106002400C64024000003D2063
:10465000400F00203D00002008600240006800F08C
:104660000100704710B50C4A0C4C02F10C03984243
:1046700004F5806038BF221D3CBF46F20000C4F242
:1046800002008B0048BF10460068084004490840FB
:1046900018BF012010BD00BF04640240006002404A
:1046A0007D0F7D0F0B0604D5436952B143F08003A3
:1046B0004361802911D04AB1026801F01E01114303
:1046C0000AE023F080028029426106D06FF01E02CA
:1046D00062EA0101026811400160704770B502682A
:1046E000124B01F10C0670CE1A400B681A438B690D
:1046F000224332431A43CB691A430B6A1A434B6A6B
:104700001A438B6A1A434B6B1A438B6B1A43026032
:10471000CA6A436923F007031A430B6B1A434261C9
:1047200045604A6882608968C16070BD3F801CF046
:1047300041607047B0B590B000F05DF9184C20466C
:10474000FFF7EEFE2046FFF789FF0028FAD14FF46D
:1047500080310020344D0B914FF4807100F041F90D
:104760000A914FF48061CDE906014FF40071CDE963
:1047700004010C49281D0290204603914FF000616E
:10478000019101A9FFF7AAFF28464021012200F06C
:1047900098FA20460121FFF7BBFE10B0B0BD00BF64
:1047A000886402406C000020B0B590B000F023F99E
:1047B000324C2046FFF7B4FE2046FFF74FFF00289B
:1047C000FAD100204FF48031174DCDE90A014FF4A2
:1047D000806100F006F9CDE906014FF40071281D53
:1047E00005914021029020460491234903914FF006
:1047F0000061019101A9FFF771FF0C480090684624
:1048000000F0B6F8204610210122FFF74BFF00F020
:10481000F7F828468021012200F053FA20460021B3
:10482000FFF776FE10B0B0BD001001404601000158
:10483000B0B50C4601460F480268002AFCD00022A1
:1048400002600D482246FFF744FD0C4D002128462A
:10485000FFF75EFE2846FFF701FF0028FAD1284641
:104860002146FFF765FF28460121BDE8B040FFF76C
:104870004FBE00BF000000206C020020B864024060
:1048800070472DE9F043D1F8008000234FF0010E6E
:104890004FF0030C0026102E08BFBDE8F0830EFA7F
:1048A00006F918EA090F29D004680CFA03F5AC439D
:1048B000ED4304600C79076804FA03F23A4302609E
:1048C000621E012A12D882682A4082604A798C7955
:1048D00087689A403A438260426822EA090242604D
:1048E00004FA06F2446892B222434260C2682A4047
:1048F000C260CA79C4689A402243C260023301365A
:10490000C9E7B0B51C236FF003050F2403EA810348
:1049100005EA510108449C40016AA143016202FA80
:1049200003F1026A11430162B0BD816170474269BF
:1049300051404161704700001CB52020012100F06A
:1049400065F84FF4C060084C694600900548019036
:104950002046FFF796FF20464FF4C061FFF7E5FFC2
:104960001CBD00BF0103000100140240FEE77047B8
:1049700070B5C2781149AAB1114A07231268457867
:104980008678047823EA12220F23D340C2F104026E
:10499000D2B2334005FA02F21A430B19120183F81E
:1049A000002300E080310078012300F01F02C0F3F3
:1049B000421003FA02F241F8202070BD00E100E04D
:1049C0000CED00E0024A114008438349086070473B
:1049D00080FFFF1F016821F001010160002181605B
:1049E00070470C90CDE90800CDE90D000F9070479D
:1049F000012100F017B84FF48000012100F006B843
:104A000020464FF02051FFF76FBD0000044A0029F7
:104A100011680CBF21EA000008431060704700BF16
:104A200030380240044A002911680CBF21EA000016
:104A300008431060704700BF20380240044A002934
:104A400011680CBF21EA000008431060704700BFE6
:104A500044380240044A002911680CBF21EA0000D2
:104A600008431060704700BF2438024010B51C494D
:104A70004A6802F00C031B4A082B03D0042B17D101
:104A8000194A15E00B685B02174B58BF13460A68BA
:104A9000022402F03F02B3FBF2F20B68C3F3881367
:104AA0005A430B68C3F3014304EB4303B2FBF3F235
:104AB00002600E4C4B68C3F30313E35CDA404260C0
:104AC0004B68C3F38223E35C22FA03F383604968F3
:104AD000C1F34231615C22FA01F1C16010BD00BF37
:104AE000043802400024F40000127A00E24F00086B
:104AF000044904280A6822F0040208BF04320A604C
:104B0000704700BF10E000E01CB53348344CD0F8CB
:104B1000801041F47001C0F8801030490A6842F0FA
:104B200001020A6000228A600B6823400B602D4B53
:104B30004B600B6823F480230B60CA6001920092E3
:104B40000A6842F480320A600A6802F40032009275
:104B5000019A01320192009A1AB9019AB2F5A04F56
:104B6000F2D10A68920354BF002201220092009AF7
:104B7000012A2CD10A6C42F080520A641A4A136846
:104B800043F4404313608A688A608A6842F40042B2
:104B90008A608A6842F4A0528A60144A4A600A68AD
:104BA00042F080720A600A689201FCD540F20572F8
:104BB000C1F800248A6822F003028A608A6842F001
:104BC00002028A608A6802F00C02082AFAD14FF0C9
:104BD000006101601CBD00BF08ED00E0003802402C
:104BE000FFFFF6FE1030002400700040085440071C
:104BF00070B588B0694C0546204600F06BF801207E
:104C00000121FFF703FF10200121FFF717FF04F533
:104C10007046092107223046FFF773FE30460A210D
:104C20000722FFF76EFE134807904FF4C06006900E
:104C300006A93046FFF725FE0020ADF81400CDE9A7
:104C400002504FF44020049002A9204600F0D6F80C
:104C50000948019001A8FFF78BFE204640F224414D
:104C6000012200F0B5F82046012100F020F808B03C
:104C700070BD00BF020300012501000110B5474CC3
:104C800040F22441204600F08BF820B12088A08813
:104C90000121CA48017010BD80B54FF4E130FFF723
:104CA000A7FFFFF781FDBDE88040FFF743BD002966
:104CB00018BF0121828922F4005242EA41318181E8
:104CC0007047002A828A0CBF22EA010111438182C7
:104CD0007047000080B52B4988421BD02A49884282
:104CE0001FD02A49884223D02949884227D0294900
:104CF00088422BD0284988422FD06949884237D032
:104D00002649884218BF80BD10200121FFF7A2FE6E
:104D1000102032E04FF40030FFF76AFE4FF400300D
:104D200021E04FF48020FFF763FE4FF480201AE06B
:104D30004FF40020FFF75CFE4FF4002013E04FF427
:104D40008010FFF755FE4FF480100CE04FF08040CC
:104D5000FFF74EFE4FF0804005E04FF00040FFF7B8
:104D600047FE4FF000400021BDE88040FFF75ABEEB
:104D700020200121FFF76EFE20200021BDE88040A9
:104D8000FFF768BE0044004000480040004C00406F
:104D90000050004000780040007C004000100140BE
:104DA000C1F34212022A06D0012A14BF00F11402F4
:104DB00000F10C0201E000F110021288008801F0FD
:104DC0001F03090ADA40C840104000F00100704794
:104DD00010B501F01F03012404FA03F3C1F34214D8
:104DE0001421022C08BF1021012C08BF0C21002A1D
:104DF00042580CBF9A431A43425010BD7FB5044637
:104E00000D46C8886E46218A21F4405108434EF66B
:104E1000F3112082A0890840A98808432989084302
:104E200069890843A081A889A18A21F440710843B7
:104E3000A0823046FFF71AFE194944F480606FF0F3
:104E40006303884214BF06F1080006F10C000068F5
:104E5000192101224843B4F90C10B1F1FF3FC8BF3A
:104E60000222296803259140B0FBF1F06421B0FBD8
:104E7000F1F202FB0300B4F90C30B3F1FF3FC8BFFD
:104E80000425A8403230B0FBF1F00721B3F1FF3F19
:104E9000C8BF0F21084040EA021020817FBD00BF3B
:104EA00000140140FEE7000010B504466FF0040056
:104EB000FFF71EFE1A49E0084FF47A72087050435B
:104EC000488010BD70B504464FF40770B4FBF0F590
:104ED0002E46300605D04FF4077000F00FF8013E63
:104EE000F7E74FF4077005FB1040010408BF70BDE1
:104EF00080B2BDE8704000F001B800000849498860
:104F000041430848416000218160016841F001018E
:104F10000160016801F001110129FAD0FFF75ABDC3
:104F20006800002010E000E04FF000604FF4804186
:104F3000FFF748FD62B6A820FFF7B6FFFFF7FCFCBD
:104F4000FFF7AAFE17A01121FFF772FC1A4C1B4FA6
:104F50001B4D1C4E4FF400784FF0000938780128A3
:104F600017D12846FFF796F981B22846FFF760FC73
:104F700028464FF40071FFF7F1F920460021FFF7B2
:104F8000C7FA20460121C4F80480FFF7C1FA87F868
:104F9000009030464FF40071FFF7C9FC6420FFF722
:104FA00091FFDBE748656C6C6F2066726F6D206166
:104FB0007070210D0A000000886402406C0400201B
:104FC0006C00002000140240F1EE100A4FF6FF7151
:104FD000C0F2C03120EA010040F04070E1EE100A5A
:104FE00070470000000001020304010203040607E9
:104FF0000809000018500008000000200800000008
:10500000EC4100082050000808000020680A000059
:105010000C42000800000000010000000000000039
:040000050800418925
:00000001FF
