:020000040800F2
:1040000010940020014300089D5E00080B43000847
:10401000995E0008DD550008656A00080000000090
:1040200000000000000000000000000061620008C5
:10403000B55C000800000000B15F0008B96300082B
:104040001B4300081B4300081B4300081B430008D8
:104050001B4300081B4300081B4300081B430008C8
:104060001B4300081B4300081B4300081B430008B8
:104070001B4300081B4300081B4300081B430008A8
:104080001B4300081B4300081B4300081B43000898
:104090001B4300081B4300081B4300081B43000888
:1040A0001B4300081B4300081B4300081B43000878
:1040B0001B4300081B4300081B4300081B43000868
:1040C0001B4300081B4300081B4300081B43000858
:1040D0001B430008356500081B4300081B4300080C
:1040E0001B4300081B4300081B4300081B43000838
:1040F0001B4300081B4300081B4300081B43000828
:104100001B4300081B4300081B4300081B43000817
:104110001B4300081B4300081B4300081B43000807
:104120001B4300081B4300081B4300081B430008F7
:104130001B4300081B4300081B4300081B430008E7
:104140001B4300081B4300081B4300081B430008D7
:104150001B4300081B430008E15500081B430008EF
:104160001B4300081B4300081B4300081B430008B7
:104170001B4300081B4300081B4300081B430008A7
:104180001B4300081B43000800F002F800F0A8F8E9
:1041900014A696E8000CB244B344DA4501D100F00D
:1041A0009FF8BAE80F000FA696E83000A5EB0405CB
:1041B00004EB0607AAEB0704A7F101074FEA151560
:1041C0004FEA3414A4F10104AC4201D300F088F8A2
:1041D00013F0010F18BFFB1A43F0010300F001F8C0
:1041E000DBE71847207B0000407B0000103A24BF2B
:1041F00078C878C1FAD8520724BF30C830C144BF4C
:1042000004680C6070470000704700000023002421
:1042100000250026103A28BF78C1FBD8520728BFD6
:1042200030C148BF0B6070476E2900F0D7817029FC
:1042300000F00D83662907F04C84652907F0498456
:10424000672907F04684612907F0458403681B0A43
:1042500028BF41F08001692900F08481642900F0C1
:104260008181752900F07E816F2900F09B82782979
:1042700000F0D982E92900F03582E42900F0328289
:10428000F52900F02F82EF2900F09882F82900F03C
:10429000D8820368DB0928BF41F08001632901F05F
:1042A0002380732901F02880E32901F03380F3296A
:1042B00001F03880002070471FB507F0FDFB01F0CA
:1042C0008BF804000020002107F0E0FB401C606038
:1042D0000020002107F0C4FBE0601FBD10B510BD39
:1042E00001F04CF81146FFF7E7FF02F0EBFB01F09D
:1042F00029F903B4FFF7F2FF03BC02F0B5FB00009D
:104300000948804709480047FEE7FEE7FEE7FEE769
:10431000FEE7FEE7FEE7FEE7FEE7FEE704480549A5
:10432000054A064B70470000F96300088941000800
:10433000108E00201094002010900020109000207B
:10434000704700000FB4044910B503AA029800F0AA
:1043500059F910BC5DF814FB68040020032A40F2F0
:10436000308010F0030C00F0158011F8013BBCF117
:10437000020F624498BF11F801CB00F8013B38BF2F
:1043800011F8013BA2F1040298BF00F801CB38BF3D
:1043900000F8013B11F0030300F02883083AC0F055
:1043A000088051F8043B083A51F804CBA0E8081003
:1043B000F5E7121D5CBF51F8043B40F8043BAFF336
:1043C0000080D20724BF11F8013B11F801CB48BF90
:1043D00011F8012B24BF00F8013B00F801CB48BFC6
:1043E00000F8012B704702F0FF0343EA032242EA80
:1043F000024200F00AB802F0FF0343EA032242EA55
:10440000024200F024B84FF000020429C0F01280EC
:1044100010F0030C00F01B80CCF1040CBCF1020F77
:1044200018BF00F8012BA8BF20F8022BA1EB0C014C
:1044300000F00DB85FEAC17C24BF00F8012B00F842
:10444000012B48BF00F8012B70474FF0000200B568
:10445000134694469646203922BFA0E80C50A0E8A7
:104460000C50B1F12001BFF4F7AF090728BFA0E855
:104470000C5048BF0CC05DF804EB890028BF40F821
:10448000042B08BF704748BF20F8022B11F0804F63
:1044900018BF00F8012B704770477047704770478E
:1044A00070B5044685690068C10601D5302600E074
:1044B0002026C00707D070BDD4E9012130469047BF
:1044C000206A401C20626D1EF6D570BD70B5044692
:1044D00085690078C00707D170BDD4E9012120208B
:1044E0009047206A401C20626D1EF6D570BD096899
:1044F0004A0501D540B27047C905FCD500B27047E6
:1045000009684A0501D5C0B27047C905FCD580B21B
:10451000704770B50C460546012A05D028788006FC
:1045200000D5EA69002302E0012305E05B1C934209
:1045300002D2E05C0028F9D1A869E618C01AA86187
:10454000286A184428622846FFF7AAFF04E0D5E944
:10455000012114F8010B9047B442F8D32846FFF725
:10456000B5FF70BD2DE9F04106460024106875299D
:10457000314616A510D0FFF7BAFF002802DA4042F4
:1045800013A507E031688A0701D512A502E04907A3
:1045900004D511A5012401E0FFF7B2FF00210A2292
:1045A00006F1240709E0B0FBF2FCB0FBF2F302FBDA
:1045B0001C00303078541846491C0028F3D123469B
:1045C0002A463046BDE8F04100F087BA00000000FE
:1045D0002D0000002B000000200000001168026880
:1045E000006A530501D508700AE0D30501D508809B
:1045F00006E0130603D5C217C1E9000200E0086017
:1046000001207047074B70B50D467B4400F04FFE0C
:104610000446284600F08AFE10B14FF0FF3070BD0E
:10462000204670BD632400002DE9FF5F15468A46D1
:104630000446DFF8AC80F8440027D8E900103E4675
:10464000CDE9001010E03AF816106A4602A800F012
:1046500071FE411C07D02178890603D5E26939181B
:1046600091420DD80744761C2078800602D5E06977
:10467000B84205DDAE42E6DB3AF816000028E2D18A
:10468000A069C01BA0612046FFF70AFFD8E900100F
:10469000CDE90010002017E03AF818106A4602A889
:1046A00000F048FEB0F1FF3F81460BD000250DF130
:1046B000080B05E0D4E901211BF8050090476D1CAB
:1046C0004D45F7D308F10100B0428046E4DB206A93
:1046D000384420622046FFF7F9FEBDE8FF9F000046
:1046E000A27400002DE9F0418046D21D22F007029D
:1046F0000025D2E90002F52915A614D0011E72F199
:10470000000106DA0023D0EB030063EB020211A6DE
:1047100008E0D8F800108B0701D50FA602E0490782
:1047200001D50EA601251146002408F1240704E056
:1047300000F08EF930323A55641C50EA0102F7D18C
:104740002B46324621464046BDE8F04100F0C5B94F
:10475000000000002D0000002B00000020000000E1
:1047600030B4002100F1240408E002F00705D2086B
:10477000303542EA4372DB086554491C52EA0305AE
:10478000F3D10468002310A2250708D504F0200403
:104790000C4304D0C46901230CA2641EC46130BC64
:1047A00000F09BB910B5044621461068FFF7A8FE3B
:1047B00002462046BDE810400023D1E7D21D22F07A
:1047C0000701D1E90023CBE7000000003000000022
:1047D000F0B40D460188090502D5214C7C4402E065
:1047E0001F4C7C440E34002100F1240608E002F046
:1047F0000F071209E75D42EA03721B097754491C4F
:1048000052EA0307F3D102780023120704D5702D72
:1048100006D009B1022311342246F0BC00F05DB984
:1048200001231034F8E770B504460D4621461068A0
:10483000FFF766FE024629462046BDE87040002389
:10484000C6E7D21D22F00703D3E90023C0E70368BF
:10485000126843F0200303600823C3610023B7E715
:10486000047300002DE9F05F894604464FF0000A0A
:10487000DFF874B1FB44C0F820A02046E168884707
:10488000002874D0252806D0D4E901219047206A59
:10489000401C2062F1E700265F462046E168884719
:1048A0002028054607DB312D05D2781910F8200C99
:1048B00008B10643F1E7B00701D526F00406C4F8B5
:1048C0001CA00027C4F818A02A2D09D0284607F0FC
:1048D000BFF838B304EB8708303DC8F8185019E02A
:1048E00059F8041B204604EB87029161E168884770
:1048F000012F054618D1E069002820DA26F02006AD
:104900001DE0D8F8180000EB800005EB40003038BF
:10491000C8F818002046E1688847054607F098F86F
:104920000028EED1012F0AD02E2D08D12046E168B3
:1049300088477F1C0546022F46F02006C4DBA0698D
:10494000002803DA404246F00106A061F00701D0DA
:1049500026F010066C2D0BD0682D09D04C2D39D0C7
:104960006A2D35D0742D35D07A2D33D016E038E04D
:10497000E1682F4620468847B842054609D16C2F8A
:1049800026D04FF48060E1680643204688470546FC
:1049900004E06C2F1AD04FF4807006430DB3A5F1DC
:1049A0004100192802D8203546F400664A462946B7
:1049B000204626604E46FFF737FC80B101280BD019
:1049C000F61D26F0070000F1080956E74020E4E74D
:1049D0008020D8E70020D6E706F104094DE72846F5
:1049E00052E7206ABDE8F09F9472000010B5203AAB
:1049F000C0F00B80B1E81850A0E81850B1E818508A
:104A0000A0E81850203ABFF4F5AF5FEA027C24BF5B
:104A1000B1E81850A0E8185044BF18C918C0BDE844
:104A200010405FEA827C24BF51F8043B40F8043B0D
:104A300008BF7047D20728BF31F8023B48BF11F8C2
:104A4000012B28BF20F8023B48BF00F8012B70471C
:104A500030B5B0F10A0271F100034FEA900E4EEA50
:104A6000817EB0EB0E0061EB91014FEA101E4EEA21
:104A7000017E10EB0E0041EB11114FEA102E4EEAB1
:104A8000016E10EB0E0041EB11214FEA104E4EEA81
:104A9000014E10EB0E0041EB1141401841F10001B5
:104AA0004FEAD00040EA41704FEAD1014FEA810459
:104AB00044EA907410EB800544EB01046D1944EB5B
:104AC0000404521BA3414FF0000348BF0A3200D533
:104AD00030BD401C41F1000130BD2DE9F0470D46CD
:104AE00099469246044600F124080168880604D5D8
:104AF000E06921F01001216000E00120A84201DD01
:104B0000471B00E00027A1697A1902EB0900081A87
:104B1000A0612078C00602D42046FFF7C1FC002621
:104B200008E0D4E901211AF806009047206A401CE9
:104B3000761C20624E45F4DB2078C0060AD520465C
:104B4000FFF7AEFC06E0D4E9012130209047206A4F
:104B5000401C2062381EA7F10107F4DC07E0D4E90D
:104B6000012118F805009047206A401C2062281E89
:104B7000A5F10105F3DC2046FFF7A8FC207800062C
:104B800002D50220BDE8F0870120FBE72DE9FF4FA9
:104B90000C461E464FF0FF378BB0D2E90001DDF81E
:104BA00060800A908A46C1F30A5505B93D46002146
:104BB00008464FF00000BAF1000F00F4400005DA9B
:104BC00000EB80004FF4400101EA50004FEA905999
:104BD000B9F1010F00DDB9460A9850EA4A000ED03B
:104BE00044F61050A5F2FF3545432F14B8F1000FDD
:104BF0001ED07542291E1EDDC9F100021CE0B8F16D
:104C0000010F4FF0000001D0302103E0F24305E036
:104C10002154401CB042FBDB3046002200212154CD
:104C20000B99C1F80880C1E900200FB0BDE8F08FF2
:104C3000BD1B6D1CDEE74A4600DA694206A800F09B
:104C40000FFC06AB93E8070003AB83E80700504670
:104C50000A9906F01DFB8DE80700A0F500501F38EB
:104C600000900398002D0ADD42F21F014A460844D5
:104C7000002303A90390684606F086FD09E0A0F52D
:104C800000504A461F38002303A90390684606F0E7
:104C900090FD8DE807000004000C03D04FF0FF30BA
:104CA000410800E01046B8F1000F03D00022009246
:104CB00015461EE0751E05D4FFF7CAFE3032625558
:104CC0006D1EF9D5B3460122084302D000227F1C95
:104CD00004E02078302801D100227F1E002A0997A5
:104CE00084D01DE0112D07DAFFF7B2FE3032625595
:104CF0006D1C50EA0102F5D1084302D00098C8B1FA
:104D00000EE00021681E05E0235C625C63542254BF
:104D1000401E491C8142F7DBAB46A81B401E099090
:104D2000002004F80B000B98099AC0F80880C0E92D
:104D3000002B7AE711264FF0000857E72DE9F04FD6
:104D400088460446D21D22F0070191B0D1E9000146
:104D5000CDE90A0106F064FE02460B98C00F01D0AF
:104D60002D2007E02068810701D52B2002E02021BB
:104D700001EAC000032A099001D0072A05DB034697
:104D80004146204600F02CFB0BE12078800601D53F
:104D9000E06900E00620B8F1650F814606D0B8F161
:104DA000660F18D0B8F1670F70D131E00020B9F16B
:104DB000110F009001DB112301E009F101030AAAA0
:104DC00001A90CA8FFF7E2FEDDE90C70002609F14D
:104DD0000105834647E001204B4600904FF0004715
:104DE0000AAA01A90CA8FFF7D1FEDDE90DB00C99C4
:104DF0005D46002610B909F101000D18B9EB050058
:104E000003D4C0F1FF3609F10105A5EB09002BE041
:104E1000B9F1010F01DA4FF001090020B9F1110FCA
:104E20000090484601DD112300E003460AAA01A9CB
:104E30000CA8FFF7ABFEDDE90C704D46002683465B
:104E4000207800070AD4AB4500DA5D4601A8012DA1
:104E500004DD411911F8011C302907D04F4502DA51
:104E600017F1040F04DA012082460FE06D1EEEE711
:104E7000002F02DCED1B3E4403E0781CA84200DD5D
:104E80007D1CB81B00F1010A4FF000472078000795
:104E900003D4AA4501DB4FF0FF3A0021B7F1004FE0
:104EA0000DF143088DF8431024D002202B23002F4E
:104EB00001DA7F422D230A21021EA0F1010000DC4D
:104EC0005FB197FBF1FC97FBF1F201FB1C7C1746ED
:104ED0000CF1300C08F801CDEEE7A8F101000370E9
:104EE0002188090501D5452100E06521A0F10108CF
:104EF00000F8011C09980FA9A1EB0807FF1D00B1DC
:104F00000120411901EBEA70A1693844081A401EDA
:104F1000A0612078C00602D42046FFF7C1FA0998A4
:104F200028B1D4E901219047206A401C20622078F2
:104F3000C00622D52046FFF7B3FA1EE0002E04DBA0
:104F4000B34502DD01A8805D00E03020D4E90121F5
:104F50009047206A401C2062761CAAF101005FEA9B
:104F6000000A0AD100F038FAC0680168405CD4E950
:104F700001219047206A401C2062281EA5F10105EE
:104F8000DCDC07E0D4E9012118F8010B9047206A26
:104F9000401C2062381EA7F10107F3DC2046FFF712
:104FA00095FA032011B041E62DE9F04F04460D4675
:104FB000D21D22F0070089B0D0E900974846394653
:104FC00006F02EFD0246F80F01D02D2307E02068E1
:104FD000810701D52B2302E0202101EAC0038DF8CF
:104FE00020300BB1012000E00020032A824601D0CE
:104FF000072A04DB2946204600F0F2F93FE1207839
:10500000800601D40D2500E0E569C7F30A560D2D91
:1050100049DA00214FEA175B08464FF00000002FE5
:1050200000F4400007DA00EB80004FF4400100EB91
:10503000D07001EA60008115012901DD4FF0FF31D8
:1050400000224FEA850CBCF1180F06D31346ACF1D1
:1050500018004FF08052C24003E04FF4801323FA4F
:105060000CF30CF10C0CBCF1200F04D3ACF1200CB0
:1050700009FA0CF001E007FA0CF000294FF00048A3
:1050800001DD18B90FE00ED140450CD319EB020930
:105090005F4121B9404502D19F4329EA0209BBEB98
:1050A000175F00D0761C2088000502D57B48784425
:1050B00002E07A487844193808AA302302F80A3006
:1050C000037C0AF10101002E0AF1020A53546A46D8
:1050D00002DC4FF0300101E04FF031014FF00108E8
:1050E0008DF8001002D0A6F2FF3603E059EA47011E
:1050F00000D06B4E002D02DC2178090704D54FF05B
:1051000002082E218DF80110C44600210BE0C7F3E0
:1051100003433F01C35C491C6D1E02F8083005299A
:1051200008F1010801DA002DF1DC00210CE000EBB0
:105130001973491C1B786D1E082902F808304FEAC4
:10514000091908F1010801DA002DF0DC21688B064D
:1051500002D516E0A8F10108E04505DD02EB0803E1
:1051600013F8013C302BF5D0B8F1000F09DD02EB4C
:10517000080313F8013C2E2B03D1090701D4A8F131
:105180000108002D05DD3E2102F808106D1E08F112
:105190000108407C002E02F8080008F1010804DA3A
:1051A0002D20764202F8080002E02B2002F80800C9
:1051B0000A214FF47A70864208F101080BDB96FB56
:1051C000F0F3303302F8083096FBF0F308F10108F1
:1051D00000FB136601E0642E0CDB642096FBF0F309
:1051E000303302F8083096FBF0F308F1010800FBB9
:1051F000136601E00A2E06DB96FBF1F0303002F870
:10520000080008F1010896FBF1F001FB1060303056
:1052100002F80800A16908F1010808EB050202EB99
:105220000A00081AA0612078C00602D42046FFF7C1
:1052300037F9216A08AE01EB0A00206204E0D4E9E4
:10524000012116F8010B9047BAF1010AF7D2207834
:10525000C00602D52046FFF723F96E4609E016F88E
:10526000010B3E280FD0D4E901219047206A401C51
:105270002062B8F10108F2D22046FFF727F909B001
:105280000320BDE8F08F206A2844206203E0D4E9BF
:105290000121302090476D1EEBD3F8E77E6A0000B5
:1052A00002FCFFFF01694A1C02610878704700B5E3
:1052B0008FB0CDE901310021059105497944CDE94F
:1052C000031011466846FFF7CDFA0FB000BD00008D
:1052D000E5FFFFFF10B5436913B1AFF3008001E0B4
:1052E000FFF717F9012010BD127800F124010A70B0
:1052F00000224A700122EDE711684FF0FF32E9E722
:1053000010B5436913B1AFF3008001E0FFF78CF9EA
:10531000012010BD128800F1240182840022C28481
:105320000122EDE711684FF0FF32E9E7007B00F062
:10533000800070472DE9F04116460C46054600F006
:1053400043F8036893F80101012807D0FF2C12D815
:10535000185D80B101202C70BDE8F081D3F8070101
:105360003246214603F20713C7182846BC46BDE85B
:10537000F041002360474FF0FF30EDE7754600F045
:10538000EBF8AE4605006946534620F00700854617
:1053900018B020B5FEF7C2FFBDE820404FF0000670
:1053A0004FF000074FF000084FF0000BAC46ACE8A0
:1053B000C009ACE8C009ACE8C009ACE8C00921F0FC
:1053C00007018D467047000010B500F005F8001D7C
:1053D00010BD00BFB96600000048704728000020DB
:1053E0002DE9F0411F46044603260168072A01F40F
:1053F000006004DB08B116A505E016A503E008B1BE
:1054000015A500E015A521F010002060A069C01EC0
:10541000A0610FB1401EA0612046FFF741F84FB1D7
:10542000D4E9012138469047206A401C2062C01C04
:10543000206206E0206AFAE7D4E9012115F8010BA1
:105440009047761EF8D22046FFF740F8BDE8F0817D
:105450004E414E006E616E00494E4600696E660018
:105460002DE9F047814616468AB0354878440DC884
:105470008DE80D0032487844801C03AC0DC884E8E8
:105480000D0041F69B300844372190FBF1F290FB70
:10549000F1F5A5F1800501FB12041B3C02D5644225
:1054A000012000E00020DFF898A080460027FA44A1
:1054B000AAF1BE0A0EE0E0070AD03246684607EBC2
:1054C000470101230AEB810106F073F98DE807001B
:1054D00064107F1C002CEED1194F7F44AE3F19E0C1
:1054E000E80715D007EB04100DF1180A90E80E003C
:1054F0008AE80E00C068F04201D19819089032463F
:10550000012306A903A806F054F903AB83E80700BA
:105510006D10641C002DE3D14FF001033246694643
:10552000B8F1000F03A802D006F02EF901E006F052
:1055300040F9C9E90001C9F808200AB0BDE8F087C0
:105540005067000010B50446AFF300802046BDE868
:105550001040FEF7CEBE0000004870470800002053
:1055600030B44FF0013C50F8042B51F8043BCCFA16
:1055700052F4D51A20D1FCB950F8042B51F8043B51
:10558000CCFA52F4D51A17D1B4B950F8042B51F80B
:10559000043BCCFA52F4D51A0ED16CB950F8042B56
:1055A00051F8043BCCFA52F4D51A05D1002CDAD0CC
:1055B00030BC4FF00000704729BAB1FA81F111F008
:1055C0001801D1F120008440F2D1CA40CB4012F042
:1055D000FF0213F0FF0330BCD01A7047FFE7FEE76D
:1055E00080B546F2B840C4F202004FF0205100F0FE
:1055F0009FF988B1FFE746F2B840C4F202004FF0CD
:10560000205100F00BF840F20C60C2F2000000687C
:10561000002104F08BF8FFE780BD000083B002900A
:105620000191029846F20F41C4F20201884206D865
:10563000FFE746F20000C4F20200009005E046F2E7
:105640000040C4F202000090FFE79DF807008006CA
:10565000002809D5FFE7019840F67D71C0F67D71FD
:1056600008400099C86008E0019840F67D71C0F6D6
:105670007D71084000998860FFE703B07047000023
:1056800082B001908DF803109DF8030030B1FFE760
:105690000199086840F00100086005E00199086878
:1056A00020F001000860FFE702B0704781B0009071
:1056B0000099086820F00100086000990020086047
:1056C00000994860009988600099C8600099086155
:1056D000009921204861009846F21001C4F20201AD
:1056E000884207D1FFE746F20801C4F202013D20DB
:1056F000086005E1009846F22801C4F202018842E0
:1057000008D1FFE746F20801C4F202014FF47460C9
:105710000860F4E0009846F24001C4F202018842B9
:1057200008D1FFE746F20801C4F202014FF47410F9
:105730000860E3E0009846F25801C4F20201884292
:1057400008D1FFE746F20801C4F202014FF074608D
:105750000860D2E0009846F27001C4F2020188426B
:1057600009D1FFE746F20C01C4F202013D20C2F26A
:1057700000000860C0E0009846F28801C4F202010F
:1057800088420AD1FFE746F20C01C4F2020140F65A
:105790004070C2F200000860ADE0009846F2A0013F
:1057A000C4F20201884209D1FFE746F20C01C4F2BB
:1057B00002010020C2F23D0008609BE0009846F222
:1057C000B801C4F20201884208D1FFE746F20C0199
:1057D000C4F202014FF03D5008608AE0009846F2A2
:1057E0001041C4F20201884207D1FFE746F20841A6
:1057F000C4F202013D2008607AE0009846F2284198
:10580000C4F20201884208D1FFE746F20841C4F21F
:1058100002014FF47460086069E0009846F240416C
:10582000C4F20201884208D1FFE746F20841C4F2FF
:1058300002014FF47410086058E0009846F2584195
:10584000C4F20201884208D1FFE746F20841C4F2DF
:1058500002014FF07460086047E0009846F2704122
:10586000C4F20201884209D1FFE746F20C41C4F2BA
:1058700002013D20C2F20000086035E0009846F2C7
:105880008841C4F2020188420AD1FFE746F20C4186
:10589000C4F2020140F64070C2F20000086022E04B
:1058A000009846F2A041C4F20201884209D1FFE704
:1058B00046F20C41C4F202010020C2F23D00086031
:1058C00010E0009846F2B841C4F20201884208D1C3
:1058D000FFE746F20C41C4F202014FF03D50086070
:1058E000FFE7FFE7FFE7FFE7FFE7FFE7FFE7FFE788
:1058F000FFE7FFE7FFE7FFE7FFE7FFE7FFE7FFE778
:1059000001B0704782B0019000208DF8030001982B
:105910000068C00720B1FFE701208DF8030003E015
:1059200000208DF80300FFE79DF8030002B07047E8
:1059300085B00490039100208DF80B00009004982E
:1059400046F20F41C4F20201884206D8FFE746F250
:105950000000C4F20200019005E046F20040C4F2EB
:1059600002000190FFE79DF80F008006002804D593
:10597000FFE701984068009003E0019800680090FC
:10598000FFE7009840F67D71C0F67D7108400090F9
:1059900000980399084204D0FFE701208DF80B001E
:1059A00003E000208DF80B00FFE79DF80B0005B029
:1059B0007047000083B0029001918DF803209DF89C
:1059C00004000006002811D5FFE79DF8030030B160
:1059D000FFE70299486940F08000486105E00299BC
:1059E000486920F080004861FFE7FFE701988028C0
:1059F00017D0FFE79DF8030040B1FFE7019800F0E2
:105A00001E02029908681043086009E001996FF0CE
:105A10001E0060EA01020299086810400860FFE772
:105A2000FFE703B07047000083B0029001910020AF
:105A30000090029800680090009848F23F01CFF271
:105A40001C010840009001990868D1F80CC04B690E
:105A50008A6940EA0C0018431043CA6910430A6A75
:105A600010434A6A10438A6A10434A6B1043896B99
:105A7000014300980843009000980299086002983A
:105A800040690090009820F0070000900199C86AD2
:105A9000096B0143009808430090009802994861FF
:105AA00001980069029948600198406802998860ED
:105AB000019880680299C86003B0704782B0019075
:105AC000ADF80210BDF802000199486002B07047BD
:105AD00080B592B04FF48000012100F09BFA46F2AD
:105AE0008840C4F20200FFF7E1FDFFE746F288407C
:105AF000C4F20200FFF706FF08B1FFE7F6E74FF038
:105B00000060039041F20400C4F20100049040F2EE
:105B10006800C2F200000590002006904FF400716A
:105B2000079108904FF4806109910A900B904FF40F
:105B300080710C914FF480310D910E900F90109068
:105B4000119046F28840C4F20200019003A9FFF7C9
:105B50006BFF41F20000C4F20100402101220292D9
:105B600000F070FD01980299FFF78AFD12B080BD28
:105B700080B594B04FF48000012100F04BFA46F25A
:105B8000B840C4F20200FFF791FDFFE746F2B840CB
:105B9000C4F20200FFF7B6FE08B1FFE7F6E74FF0E8
:105BA0000060059041F20400C4F20100069040F24A
:105BB0006820C2F200000790402008904FF4007067
:105BC0000990002003900A904FF480610B910C9093
:105BD0000D900E904FF480310F9110901190129013
:105BE000139046F2B840C4F20200029005A9FFF7F4
:105BF0001BFF039846218DF8101006218DF8111017
:105C00008DF81200012001908DF8130004A800F017
:105C100047F9019A02981021FFF7CCFE02984FF045
:105C20002051FFF7FBFC019A41F20000C4F2010091
:105C3000802100F007FD02980399FFF721FD14B0C1
:105C400080BD000080B584B00390ADF80A1040F22A
:105C50000C60C2F2000000684FF0FF3103F002FF59
:105C60000399BDF80A2040F26820C2F20000FEF756
:105C700075FB46F2B840C4F202000021FFF700FDB8
:105C8000FFE746F2B840C4F20200FFF73BFE08B15E
:105C9000FFE7F6E7BDF80A1046F2B840C4F202008A
:105CA0000190FFF70BFF01980121FFF7E9FC04B019
:105CB00080BD00007047000085B004900391002073
:105CC0000290019000900290FFE702980F286CD894
:105CD000FFE702990120884001900398006801992C
:105CE0000840009000980199884259D1FFE7029836
:105CF0004100032000FA01F204990868904308600B
:105D0000039800790299490000FA01F204990868A1
:105D10001043086003980079012805D0FFE7039835
:105D20000079022827D1FFE702984100032000FAFA
:105D300001F2049988689043886003984079029939
:105D4000490000FA01F20499886810438860BDF8A0
:105D50000810012000FA01F2049948689043486055
:105D600003988079BDF80810884082B20499486889
:105D700010434860FFE7BDF808004100032000FA27
:105D800001F20499C8689043C8600398C0790299E9
:105D9000490000FA01F20499C8681043C860FFE79F
:105DA000FFE70298013002908FE705B070470000CE
:105DB00084B00390ADF80A108DF8092000200190FE
:105DC00000909DF80900BDF80A1001F00701890054
:105DD00088400190BDF80A3003F0070081000F20D1
:105DE00000FA01F203986FF0030101EA5301014444
:105DF000086A904308620398BDF80A1047F6FC72DF
:105E000002EA51010844006A019908430090009891
:105E10000399BDF80A3002EA53021144086204B043
:105E20007047000082B00190ADF80210BDF802008A
:105E30000199886102B0704782B00190ADF80210FC
:105E4000BDF80220019948695040486102B070478E
:105E500080B586B020200121019100F0DBF8019887
:105E60004FF4C061039104918DF8140000218DF866
:105E7000161003218DF815108DF8170041F200401F
:105E8000C4F20200029004A9FFF716FF02980399DA
:105E9000FFF7C8FF06B080BDFFE7FEE770470000D0
:105EA00082B0019000208DF803008DF802000F20D1
:105EB0008DF801000198C078002845D0FFE74EF624
:105EC0000C50CEF200000068C043C0F302208DF8F1
:105ED00003009DF80300C0F104008DF802009DF856
:105EE00001009DF80310C8408DF80100019840782A
:105EF0009DF8021088408DF80300019880789DF885
:105F0000011001409DF8030008438DF803009DF83F
:105F1000030000018DF803009DF803000199097842
:105F20004EF20042CEF2000288540198027802F04C
:105F30001F01012088401C2101EAD2014EF200120B
:105F4000CEF2000288500EE00198027802F01F01A4
:105F5000012088401C2101EAD2014EF28012CEF2CB
:105F600000028850FFE702B07047000081B0009047
:105F700000980021C0F2FA5108434EF60C51CEF2BF
:105F80000001086001B0704782B001900091019853
:105F900000994FF68072C1F6FF72114008434EF629
:105FA0000851CEF20001086002B070470000000006
:105FB000EFF30980BFF36F8F154B1A681EF0100FB7
:105FC00008BF20ED108A20E9F04F10602DE909008C
:105FD0004FF0500080F31188BFF34F8FBFF36F8FE6
:105FE00002F0F2FF4FF0000080F31188BDE80900D5
:105FF00019680868B0E8F04F1EF0100F08BFB0EC49
:10600000108A80F30988BFF36F8F704700BF00BF0D
:106010008C05002082B001908DF803109DF80300DC
:1060200048B1FFE7019A43F63001C4F20201086863
:106030001043086008E0019A43F63001C4F20201FF
:10604000086890430860FFE702B0704782B0019093
:106050008DF803109DF8030048B1FFE7019A43F65D
:106060002001C4F2020108681043086008E0019AA8
:1060700043F62001C4F20201086890430860FFE77C
:1060800002B0704782B001908DF803109DF80300B4
:1060900048B1FFE7019A43F64401C4F202010868DF
:1060A0001043086008E0019A43F64401C4F202017B
:1060B000086890430860FFE702B0704782B0019023
:1060C0008DF803109DF8030048B1FFE7019A43F6ED
:1060D0002401C4F2020108681043086008E0019A34
:1060E00043F62401C4F20201086890430860FFE708
:1060F00002B0704788B00790002106910591049185
:10610000022003900291019043F60800C4F20200BD
:10611000006800F00C0006900698009040B1FFE780
:10612000009804280BD0FFE7009808280ED050E014
:10613000079942F20040C0F2F400086050E007996D
:1061400041F20020C0F27A00086049E043F6040002
:10615000C4F202000168C1F380510291006800F0AE
:106160003F000190029888B1FFE7019941F20020B9
:10617000C0F27A00B0FBF1F043F60401C4F2020170
:106180000968C1F388114843049010E0019942F274
:106190000040C0F2F400B0FBF1F043F60401C4F299
:1061A00002010968C1F3881148430490FFE743F6F0
:1061B0000400C4F20200006800F44031022000EB49
:1061C000D130039004980399B0FBF1F0079908606F
:1061D00006E0079942F20040C0F2F4000860FFE7D1
:1061E00043F60801C4F20201086800F0F0000690CE
:1061F000069800090690069A4BF6D830C0F60000C3
:10620000825C0592079B1A68DDF814C022FA0CF232
:106210005A600A6802F4E0520692069A920A0692BE
:10622000069A825C0592079B5A68DDF814C022FA30
:106230000CF29A60096801F4604106910699490BD5
:1062400006910699405C059007994868059AD040E8
:10625000C86008B0704700000000000000000000A7
:10626000074B19680868B0E8F04F80F30988BFF35E
:106270006F8F4FF0000080F31188704700BF00BFA0
:106280008C05002083B000200290019043F60001AD
:10629000C4F20201086840F480300860FFE743F66A
:1062A0000000C4F20200006800F40030019002987F
:1062B00001300290FFE701990020009039B9FFE713
:1062C0000298B0F5A04018BF01200090FFE70098A9
:1062D000C0070028E3D1FFE743F60000C4F2020044
:1062E00000688003002803D5FFE70120019002E049
:1062F00000200190FFE7019801285AD1FFE743F6FB
:106300004001C4F20201086840F08050086047F282
:106310000001C4F20001086840F44040086043F600
:106320000801C4F2020108680860086840F40040EF
:106330000860086840F4A050086043F60401C4F205
:10634000020145F20840C0F24070086043F60001C7
:10635000C4F20201086840F080700860FFE743F66D
:106360000000C4F2020000688001002801D4FFE7A9
:10637000F5E743F60041C4F2020140F205700860FF
:1063800043F60801C4F20201086820F00300086027
:10639000086840F002000860FFE743F60800C4F216
:1063A0000200006800F00C00082801D0FFE7F4E7C5
:1063B00000E0FFE703B0704780B582B04FF05000B7
:1063C00080F31188BFF36F8FBFF34F8F009004F0FD
:1063D0008DFA40B1FFE74EF60451CEF200014FF0C6
:1063E0008050086000E0FFE700200190019880F3F2
:1063F000118802B080BD000080B54EF68851CEF203
:106400000001086840F47000086043F60002C4F21E
:106410000202106840F00100106043F60801C4F267
:1064200002010020086011684FF6FF73CFF6F66393
:106430001940116043F60403C4F2020343F2100151
:10644000C2F200411960116821F48021116043F605
:106450000C01C4F202010860FFF714FF4EF6085168
:10646000CEF200014FF00060086080BD80B58EB0B4
:106470000D9041F20000C4F20100049000F0FCF81D
:10648000012105910846FFF7C5FD05991020FFF78A
:10649000F9FD0020C4F202000190092107220092B8
:1064A000FFF786FC009A01980A210291FFF780FC11
:1064B000019805994FF4C0620B9202228DF83020AA
:1064C00003228DF83120002203928DF832208DF8BE
:1064D00033100BA9FFF7F0FB039904980D9A07926C
:1064E000ADF82010ADF82210ADF82410ADF828104A
:1064F0000C21ADF8261007A900F002FA029A0399C0
:10650000059825238DF818308DF819208DF81A106C
:106510008DF81B0006A8FFF7C3FC0498059A40F20B
:10652000244100F0A3F90498059900F075F80EB025
:1065300080BD000080B582B00020019041F20000D3
:10654000C4F2010040F2244100F038F9002857D08D
:10655000FFE741F20000C4F20100008841F20400AC
:10656000C4F20100008848F21C60C2F2000000681A
:1065700046F28C41C4F202010968C1F5007240F292
:106580006801C2F2000101AB03F0B4FCFFE701981F
:1065900060B1FFE74EF60451CEF200014FF080509B
:1065A0000860BFF34F8FBFF36F8F00E0FFE7FFE797
:1065B00040F26800C2F200004FF40071FDF723FFC3
:1065C00046F28840C4F202000021FFF759F8FFE7C5
:1065D00046F28840C4F20200FFF794F908B1FFE7E1
:1065E000F6E746F28C41C4F202014FF400700860F5
:1065F00046F28840C4F202000121FFF741F8FFE7AC
:1066000002B080BD80B54FF4E130FFF72FFFFFF7F8
:10661000AFFAFFF75DFA80BD82B001908DF80310EC
:106620009DF8030030B1FFE70199888940F40050DC
:10663000888105E00199888920F400508881FFE76E
:1066400002B0704782B00190ADF802108DF80120C1
:106650009DF8010038B1FFE7BDF802200199888A52
:106660001043888206E0BDF802200199888A904391
:106670008882FFE702B0704780B58AB00990099818
:1066800041F20001C4F2010188420AD1FFE7102063
:1066900008900121FFF712FD08980021FFF70EFD79
:1066A0008AE0099844F20041C4F2000188420BD10B
:1066B000FFE74FF4003007900121FFF7C7FC079870
:1066C0000021FFF7C3FC76E0099844F60001C4F20C
:1066D000000188420BD1FFE74FF480200690012192
:1066E000FFF7B4FC06980021FFF7B0FC62E00998C0
:1066F00044F60041C4F2000188420BD1FFE74FF499
:10670000002005900121FFF7A1FC05980021FFF76B
:106710009DFC4EE0099845F20001C4F20001884258
:106720000BD1FFE74FF4801004900121FFF78EFC9E
:1067300004980021FFF78AFC3AE0099841F20041F1
:10674000C4F2010188420AD1FFE720200390012111
:10675000FFF7B4FC03980021FFF7B0FC27E009988D
:1067600047F60001C4F2000188420BD1FFE74FF069
:10677000804002900121FFF769FC02980021FFF799
:1067800065FC13E0099847F60041C4F20001884215
:106790000BD1FFE74FF0004001900121FFF756FCBD
:1067A00001980021FFF752FCFFE7FFE7FFE7FFE753
:1067B000FFE7FFE7FFE7FFE70AB080BD86B005907F
:1067C000ADF8121000200390029001908DF80300A4
:1067D000BDF8120040F66A11884201D1FFE7FFE7D9
:1067E0009DF8120040090190BDF8120000F01F0052
:1067F000029002990120884002900198012806D158
:10680000FFE70598818902980840029010E00198FE
:10681000022806D1FFE70598018A029808400290F5
:1068200005E00598818A029808400290FFE7FFE79B
:106830009DF8130003900399012088400390059868
:106840000188039808400390029838B1FFE7039845
:1068500020B1FFE701208DF8030003E000208DF850
:106860000300FFE79DF8030006B0704786B005906F
:10687000ADF812108DF811200020039002900190C5
:106880000090BDF8120040F66A11884201D1FFE77E
:10689000FFE7059800909DF8120040090390BDF8AD
:1068A000120000F01F000290029901208840019020
:1068B0000398012804D1FFE700980C3000900CE009
:1068C0000398022804D1FFE700981030009003E0FD
:1068D000009814300090FFE7FFE79DF8110030B1F9
:1068E000FFE7019A009908681043086005E0019AE3
:1068F0000099086890430860FFE706B07047000001
:1069000080B58AB009900891002007900690059004
:1069100004900898808908B1FFE7FFE70998008A8A
:106920000790079820F4405007900898C18807986E
:106930000843079007980999088209988089079069
:10694000079841F20C6188430790089988880A8962
:10695000104349890143079808430790079809990C
:1069600088810998808A0790079820F440700790E2
:1069700008988189079808430790079809998882A1
:106980006846FFF7B7FB099841F20001C4F2010124
:10699000884208D0FFE7099841F20041C4F20101A2
:1069A000884203D1FFE70398069002E00298069020
:1069B000FFE709988089000400280AD5FFE70698B8
:1069C00019214843089909684900B0FBF1F0059086
:1069D00009E0069819214843089909688900B0FB25
:1069E000F1F00590FFE7059848F21F51C5F2EB1151
:1069F000A0FB01016FF00F0000EA51000790059A1B
:106A000007980009642100FB1120049009988089EF
:106A10000004002810D5FFE70499322000EBC100E4
:106A200048F21F51C5F2EB11A0FB0110C0F3421157
:106A30000798084307900FE00499322000EB0110FB
:106A400048F21F51C5F2EB11A0FB0110C0F3431136
:106A5000079808430790FFE70798099908810AB04B
:106A600080BD0000FFE7FEE781B0009001B07047F5
:106A700082B001900091FFE741F20000C4F20100F2
:106A800000884006002801D4FFE7F5E79DF80400E0
:106A900041F20401C4F201010880019802B070477C
:106AA00080B582B00190FFE741F20040C4F20200DD
:106AB0004FF40071FFF7C0F94FF4FA7002F002F8DA
:106AC000F2E7000080B586B00020039005904FF0FB
:106AD00000604FF48041FFF757FA62B64FF4407000
:106AE000FFF744FAFFF7B4F9FFF78CFD4BF6E830F7
:106AF000C0F60000FDF726FC039B40F20860C2F2DE
:106B00000000694648600120086048F2D930C0F6AC
:106B100000004BF6E341C0F600014FF4807203F031
:106B200009FB04900498012811D1FFE740F20860A6
:106B3000C2F20000006800F00DF801464BF6B040CC
:106B4000C0F60000FDF7FEFB02F0EEF9FFE70020C3
:106B500006B080BD84B00290029838B9FFE740F2D9
:106B60008C50C2F200000068009002E00298009091
:106B7000FFE700980190019858B9FFE74FF05000E7
:106B800080F31188BFF36F8FBFF34F8F0390FFE740
:106B9000FEE70198343004B07047000080B588B03B
:106BA0000790069148F6FC50C2F20000006804907D
:106BB00040F29450C2F200000068039040F29C50F2
:106BC000C2F200000068029040F28C50C2F2000055
:106BD0000068043001F0D8FC88B9FFE740F28C501F
:106BE000C2F200000068C16A012000FA01F248F216
:106BF0003061C2F2000108689043086000E0FFE7DE
:106C00000798013028BBFFE7069810B3FFE7FFE7BE
:106C100048F6D451C2F2000148680190019A40F24E
:106C20008C50C2F2000003689A60019A926803686F
:106C3000DA6002680432019B9B685A600268043281
:106C4000019B9A6000684161086801300860FFE7B5
:106C500035E00498079908440590059840F28C5156
:106C6000C2F20001096848600598049988420AD276
:106C7000FFE7029840F28C51C2F20001096804312A
:106C800001F0F8FC1AE0039840F28C51C2F20001C6
:106C90000968043101F0EEFC059848F66051C2F233
:106CA00000010968884207D2FFE7059848F660515D
:106CB000C2F20001086000E0FFE7FFE7FFE708B06D
:106CC00080BD000080B582B0019001F031FD48F236
:106CD0002061C2F2000108680130086040F28C5067
:106CE000C2F20000006898B9FFE7019840F28C51A9
:106CF000C2F20001086048F22060C2F200000068A1
:106D0000012803D1FFE700F08DFC00E0FFE71CE065
:106D100048F6C850C2F200000068A0B9FFE740F290
:106D20008C50C2F200000068C06A0199C96A8842AA
:106D300007D8FFE7019840F28C51C2F200010860C9
:106D400000E0FFE700E0FFE7FFE748F22C60C2F257
:106D50000000016801310160006801994864FFE7A3
:106D60000198C16A012000FA01F248F23061C2F2D2
:106D70000001086810430860FFE70198C06A00EB53
:106D8000800040F2A451C2F2000101EB8000406893
:106D900000900098019A906000988068019AD060F5
:106DA00001980430009A9268506001980430009A6B
:106DB0009060019AD06A00EB800001EB8000506186
:106DC0000198C06A00EB800251F82200013041F8BE
:106DD0002200FFE7FFE701F0D7FC48F6C850C2F2F7
:106DE00000000068D8B1FFE7FFE740F28C50C2F224
:106DF00000000068C06A0199C96A88420CD2FFE7A6
:106E00004EF60451CEF200014FF080500860BFF3FF
:106E10004F8FBFF36F8F00E0FFE7FFE700E0FFE772
:106E200002B080BD82B00190019988684968084429
:106E30000090019801680098401A0090009801990C
:106E40008968884206D3FFE7019881680098401A54
:106E5000009000E0FFE7009802B0704780B584B072
:106E600001F066FC48F60060C2F2000000680028ED
:106E700040D1FFE748F60450C2F20000029001F052
:106E8000D9FB48F61850C2F20000039001F0D2FB83
:106E90000299039840F29052C2F20002116040F24F
:106EA000A051C2F20001086069460020086040F26B
:106EB000C042C2F2000240F23853C2F200030A207C
:106EC0000C2102F035FA014648F60060C2F20000DB
:106ED0000160006860B1FFE748F60060C2F20000A0
:106EE00000684BF6F341C0F6000101F05DFD00E0E3
:106EF000FFE700E0FFE701F047FC04B080BD0000C1
:106F000080B582B0FFE748F22460C2F2000000685A
:106F100008B3FFE701F00CFC48F6E850C2F20000AD
:106F2000C068C06801900198043001F02DFB48F260
:106F30002061C2F2000108680138086048F224614B
:106F4000C2F2000108680138086001F01DFC0198D8
:106F500000F0A2F9D7E702B080BD000080B582B092
:106F6000019000910198006CB8B1FFE70199C868E1
:106F70000A6C1044C86001988168C068884204D3D4
:106F8000FFE701990868C86000E0FFE70098019AF0
:106F9000D168126CFDF7E2F9FFE702B080BD000096
:106FA00080B586B005900491039200200290059868
:106FB000806B01900598006C78B9FFE70598006830
:106FC00048B9FFE70598806803F0CAFD029005996B
:106FD0000020886000E0FFE741E00398B8B9FFE7D0
:106FE000059A04995068126CFDF7B8F9059948683C
:106FF0000A6C10444860059948688968884204D33F
:10700000FFE705990868486000E0FFE726E0059A79
:107010000499D068126CFDF7A1F90599C8680A6C4B
:10702000801AC86005980168C068884206D2FFE7E8
:10703000059988680A6C801AC86000E0FFE7039829
:10704000022809D1FFE7019820B1FFE70198013834
:10705000019000E0FFE700E0FFE7FFE7FFE70198AE
:10706000013005998863029806B080BD80B590B064
:1070700001200F90002009900890FFE708980F2842
:1070800013DCFFE7089A4BF6EE40C0F60000815C87
:107090000AA881540899405C08B9FFE705E0FFE7BA
:1070A000FFE7089801300890E8E700200E90FFE71E
:1070B0000E9800283BDCFFE747F20D40C0F60000C9
:1070C0000990002004900790069007A806A905AA39
:1070D00001F084FA049B0998059ADDF818C0DDF8E0
:1070E0001CE06946C1F808E0C1F804C00B600AA9B9
:1070F00003F04AF801460E9A48F65850C2F20000D2
:1071000040F822100E9950F8210018B1FFE7012035
:107110000F9002E000200F90FFE70F9808B9FFE7FB
:1071200005E0FFE7FFE70E9801300E90C0E70F98EB
:1071300010B080BD70B58EB0DDF854C0DDF850C021
:10714000DDF84CC0DDF848C00A9009910892079319
:10715000139858B9FFE74FF0500080F31188BFF340
:107160006F8FBFF34F8F0D90FFE7FEE7149858B96C
:10717000FFE74FF0500080F31188BFF36F8FBFF32C
:107180004F8F0C90FFE7FEE75C20059005985C2888
:107190000BD0FFE74FF0500080F31188BFF36F8FE3
:1071A000BFF34F8F0B90FFE7FEE70598149828B3C5
:1071B000FFE7139810B3FFE71498069006985C2138
:1071C000FDF721F91398069908630699022081F8C2
:1071D00059000A980999089A079BDDF848C0159C40
:1071E000069DEE460026CEF80C60CEF80850CEF88C
:1071F0000440CEF800C000F083F902E000200690C1
:10720000FFE706980EB070BD70B58AB0DDF83CC0DF
:10721000DDF838C00990089107920693079880001E
:1072200000F016FF04900498A0B1FFE75C2000F086
:107230000FFF0590059840B1FFE705985C21FDF729
:10724000E2F804980599086303E0049801F0C2FA93
:10725000FFE702E000200590FFE70598C0B1FFE7D7
:107260000598002680F8596009980899079A069BA6
:10727000DDF838C00F9C059DEE46CEF80C60CEF8C8
:107280000850CEF80440CEF800C000F039F9FFE70E
:1072900005980AB070BD000080B582B000900098DB
:1072A00090F8590040B9FFE70098006B01F092FA9E
:1072B000009801F08FFA1CE0009890F8590001281E
:1072C00004D1FFE7009801F085FA11E0009890F8EA
:1072D000590002280BD0FFE74FF0500080F31188CF
:1072E000BFF36F8FBFF34F8F0190FFE7FEE7FFE71C
:1072F000FFE702B080BD000082B001900198406AB3
:1073000038B1FFE70198006B0068C0F105000090FC
:1073100002E000200090FFE7009802B070470000F4
:1073200082B0019040F29050C2F200000068006804
:10733000B0FA80F04009019908600198006848B9E6
:10734000FFE740F29050C2F200000068C068006899
:10735000009002E000200090FFE7009802B0704724
:1073600084B04FF40040009040F21460C2F200007C
:1073700002909DF80800400788B1FFE702980730A7
:107380000290029820F007000290029A40F21461E5
:10739000C2F200010098891A08440090FFE70299A0
:1073A00048F6CC50C2F20000016000214160029812
:1073B000009A10440190019808380190019820F03B
:1073C00007000190019A40F29850C2F2000002605A
:1073D0000268516002681160029903910199039A51
:1073E000891A51600068039908600398406848F65C
:1073F0005C51C2F2000108600398406848F654519D
:10740000C2F20001086004B07047000080B582B08D
:107410000190FFE7FFF774FD40F2A450C2F20000B4
:10742000006802280CD3FFE74EF60451CEF20001AB
:107430004FF080500860BFF34F8FBFF36F8F00E0B5
:10744000FFE7E7E780B584B0DDF818C0039002914C
:1074500001928DF80330029818B9FFE70698006092
:1074600003E0019806990860FFE703980699C8634E
:107470000298069908640698012101F0BDFF9DF865
:107480000300069981F84C0004B080BD80B588B037
:1074900084460C980B980A98CDF818C00591049270
:1074A00003938DF80B000598019004995522FCF781
:1074B0009AFF0198059988420BD0FFE74FF05000E2
:1074C00080F31188BFF36F8FBFF34F8F0790FFE7F3
:1074D000FEE706982821FCF796FF05980699886133
:1074E00004980699886003980699C8609DF80B0077
:1074F0000699087706990020486208B080BD000010
:1075000080B588B0DDF834C0DDF830C0DDF82CC0BF
:10751000DDF828C005900491039202930C98006B4B
:1075200003998900A522FCF766FF0C98006B03996C
:1075300000EB810004380190019820F007000190D1
:107540009DF80400400758B1FFE74FF0500080F36A
:107550001188BFF36F8FBFF34F8F0790FFE7FEE7F0
:107560000498F8B1FFE700200090FFE700980F288B
:1075700013D8FFE70498009A805C0C99114481F8B5
:10758000340004980099405C08B9FFE705E0FFE784
:10759000FFE7009801300090E8E70C99002081F89F
:1075A000430000E0FFE70A9805280BD3FFE74FF000
:1075B000500080F31188BFF36F8FBFF34F8F069099
:1075C000FFE7FEE70A98052803D3FFE704200A90A7
:1075D00000E0FFE70A980C99C8620A980C99C86401
:1075E0000C98043001F03EF80C98183001F03AF88D
:1075F0000C9800610A98C0F105000C9988610C98FC
:10760000406201980599029A00F0B6FE0C99086054
:107610000B9820B1FFE70C980B99086000E0FFE79A
:1076200008B080BD80B584B000200390FFE70398C8
:10763000042810D8FFE7039800EB800140F2A45023
:10764000C2F2000000EB810000F0F4FFFFE70398B6
:1076500001300390EBE748F62C50C2F20000019095
:1076600000F0E8FF48F64050C2F20000029000F03F
:10767000E1FF48F67450C2F2000000F0DBFF48F66C
:10768000E850C2F2000000F0D5FF48F6D450C2F234
:10769000000000F0CFFF0199029840F29452C2F22C
:1076A0000002116040F29C51C2F20001086004B077
:1076B00080BD000085B0039048F6CC50C2F20000B7
:1076C0000290FFE7029800680399884205D2FFE71D
:1076D000FFE7029800680290F4E7029848F6CC5160
:1076E000C2F20001884228D0FFE70299002040F250
:1076F0001462C2F20002914200900ED3FFE7029999
:1077000040F21460C2F2000047F6FF72024400200B
:10771000914298BF01200090FFE70098C00758B938
:10772000FFE74FF0500080F31188BFF36F8FBFF376
:107730004F8F0490FFE7FEE7FFE702980190019862
:107740000299496808440399884209D1FFE70398E0
:10775000426802994868104448600298039000E02B
:10776000FFE703980190019803994968084402993A
:107770000968884220D1FFE70298006840F29851DA
:10778000C2F20001096888420DD0FFE70298006844
:10779000426803994868104448600298006800688D
:1077A0000399086007E040F29850C2F200000068B8
:1077B00003990860FFE704E00298006803990860F5
:1077C000FFE702980399884204D0FFE703980299E3
:1077D000086000E0FFE705B07047000080B586B0A4
:1077E000059004910392029300200190049805995A
:1077F00048600598006104980399884216D8FFE70D
:1078000003980299401A05998969884203D3FFE7D2
:107810000120019009E040F2A050C2F2000000688F
:107820000599043100F026FFFFE717E0039802995D
:10783000884208D2FFE704980299884203D3FFE701
:107840000120019009E040F29050C2F2000000686F
:107850000599043100F00EFFFFE7FFE7019806B03D
:1078600080BD000080B582B0019000F061FF0198FA
:10787000806B18B9FFE70120009002E00020009023
:10788000FFE700F081FF009802B080BD80B582B0B4
:10789000019000F04DFF0198806B0199C96B8842FF
:1078A00003D1FFE70120009002E000200090FFE7F5
:1078B00000F06AFF009802B080BD00000848006830
:1078C000006880F308884FF0000080F3148862B6E7
:1078D00061B6BFF34F8FBFF36F8F00DF00BF0000B3
:1078E00008ED00E080B584B00390029140F2905022
:1078F000C2F200000068C068C068019001980430BE
:1079000000F042FE019890F828004007002806D5B4
:10791000FFE701980399029A00F0BEF907E0019988
:1079200091F8280000F0FE0081F82800FFE7019898
:10793000016A884704B080BD80B588B000200690F9
:1079400005900490FFE748F60060C2F2000000686E
:1079500004A9002201F098FF002800F09280FFE7C0
:107960000498002800F18C80FFE7069803900398A4
:10797000406928B1FFE70398043000F005FE00E0FD
:10798000FFE702A800F0C0F9019004980138014611
:107990000091082800F272800099DFE801F00505E7
:1079A000323A5B0505323A00039991F8280040F01D
:1079B000010081F828000398059B81691944019A08
:1079C000FFF70CFFD8B1FFE7039890F828004007B5
:1079D000002808D5FFE70398059982691144019AA8
:1079E00000F05AF907E0039991F8280000F0FE0032
:1079F00081F82800FFE70398016A884700E0FFE765
:107A00003DE0039991F8280000F0FE0081F828007D
:107A100035E0039991F8280040F0010081F8280032
:107A20000598039988610398806958B9FFE74FF07A
:107A3000500080F31188BFF36F8FBFF34F8F079013
:107A4000FFE7FEE70398019B816919441A46FFF797
:107A5000C5FE14E0039890F828008007002804D49D
:107A6000FFE7039800F0B6FE07E0039991F82800BD
:107A700000F0FE0081F82800FFE700E0FFE7FFE7E5
:107A800061E708B080BD000080B584B0039002912A
:107A900001F092FA684600F037F901900098D8BBDF
:107AA000FFE7029860B9FFE703980199884207D879
:107AB000FFE703F079FA03980199FFF713FF2AE033
:107AC000029858B1FFE740F2A050C2F200000068EF
:107AD0000068B0FA80F040090290FFE748F60060C5
:107AE000C2F2000000680399019A891A029A00F014
:107AF000B7FF03F059FA60B9FFE74EF60451CEF232
:107B000000014FF080500860BFF34F8FBFF36F8FBD
:107B100000E0FFE7FFE702E003F046FAFFE704B00A
:107B200080BD000080B58AB0069005910492039351
:107B3000049858B9FFE74FF0500080F31188BFF365
:107B40006F8FBFF34F8F0990FFE7FEE706988068BD
:107B50000399401A0499884206D2FFE70698806884
:107B60000399401A019002E004980190FFE7019800
:107B700002900298049988420BD9FFE74FF0500019
:107B800080F31188BFF36F8FBFF34F8F0890FFE72B
:107B9000FEE70398029908440699896888420BD940
:107BA000FFE74FF0500080F31188BFF36F8FBFF3F2
:107BB0004F8F0790FFE7FEE7059806998969039ABA
:107BC0001144029AFCF7CAFB0498029988420AD928
:107BD000FFE70598029B184406998969049AD21A0E
:107BE000FCF7BCFB00E0FFE704990398084403900E
:107BF000039806998968884206D3FFE7069881684A
:107C00000398401A0390FFE703980AB080BD000074
:107C100080B58AB009900891079206930998006888
:107C200002900998007FC007B0B1FFE70998029B56
:107C300003A90422FFF776FF0290039804900698A8
:107C40000438069004980799884203D9FFE700207A
:107C5000049000E0FFE702E007980490FFE7049833
:107C60000699884203D2FFE70498019002E0069843
:107C70000190FFE701980590059848B1FFE7099842
:107C80000899059A029BFFF74DFF09990860FFE7E5
:107C900005980AB080BD000080B584B003900291C1
:107CA0000192FFE70398029B81691944019AFFF74B
:107CB00095FD48B1FFE70398816902980844029056
:107CC0000398016A8847EDE704B080BD40F2945004
:107CD000C2F200000068006840B9FFE748F6605152
:107CE000C2F200014FF0FF3008600CE040F2945007
:107CF000C2F200000068C068006848F66051C2F235
:107D000000010860FFE7704780B582B0019002F083
:107D1000E3FD0090009840F28851C2F2000109682A
:107D2000884206D2FFE700F011F8019901200860AF
:107D300003E0019900200860FFE7009840F28851B5
:107D4000C2F200010860009802B080BD80B582B028
:107D5000FFE740F29050C2F200000068006870B186
:107D6000FFE740F29050C2F200000068C06800686F
:107D7000019001984FF0FF31FFF7B4FDE9E740F2C1
:107D80009052C2F200021068009040F2A051C2F27C
:107D90000001086810600098086002B080BD000013
:107DA00083B00020009040F20400C2F2000000689E
:107DB000013058B1FFE74FF0500080F31188BFF356
:107DC0006F8FBFF34F8F0290FFE7FEE74FF0500039
:107DD00080F31188BFF36F8FBFF34F8F0190FFE7E0
:107DE000009808B9FFE7FBE703B0704780B584B09F
:107DF0000390FFE701A8FFF793FA02900298019918
:107E0000FFF742FEFFF798FDF4E7000080B582B06F
:107E1000019000F08DFC019890F845008DF803006A
:107E2000FFE79DF90300012816DBFFE70198406A90
:107E300058B1FFE70198243002F0E6FF18B1FFE7E0
:107E400000F042FF00E0FFE700E005E09DF80300DE
:107E500001388DF80300E4E70199FF2081F845001F
:107E600000F092FC00F064FC019890F844008DF85A
:107E70000200FFE79DF90200012816DBFFE70198E9
:107E8000006980B1FFE70198103002F0BDFF18B122
:107E9000FFE700F019FF00E0FFE79DF8020001385E
:107EA0008DF8020000E000E0E4E70199FF2081F88E
:107EB000440000F069FC02B080BD000080B58AB0CB
:107EC0000690059104920393049858B9FFE74FF088
:107ED000500080F31188BFF36F8FBFF34F8F09906D
:107EE000FFE7FEE7069880680399401A04998842E4
:107EF00006D2FFE7069880680399401A019002E0D5
:107F000004980190FFE701980290039802990844B1
:107F10000699896888420BD9FFE74FF0500080F33B
:107F20001188BFF36F8FBFF34F8F0890FFE7FEE715
:107F300006988069039908440599029AFCF70EFA9D
:107F40000498029988421DD9FFE704980299401AC3
:107F50000699896888420BD9FFE74FF0500080F3FB
:107F60001188BFF36F8FBFF34F8F0790FFE7FEE7D6
:107F7000069880690599029B1944049AD21AFCF765
:107F8000EDF900E0FFE70499039808440390039893
:107F900006998968884206D3FFE7069881680398A6
:107FA000401A039000E0FFE703980AB080BD00008C
:107FB00080B588B0DDF828C006900591049203933F
:107FC0000698406802900698007FC00718B3FFE744
:107FD000049801900198049988420BD0FFE74FF074
:107FE000500080F31188BFF36F8FBFF34F8F07905E
:107FF000FFE7FEE703980A99884208D3FFE706984F
:10800000029B01A90422FFF759FF029002E0002021
:108010000490FFE70DE004980399884203D2FFE73C
:108020000498009002E003980090FFE70098049005
:10803000FFE7049848B1FFE706980599049A029B68
:10804000FFF73CFF06994860FFE7049808B080BD41
:1080500080B590B0099000200590099840B3FFE7E3
:10806000099810F1090F1FD8FFE709980830099007
:108070009DF824004007A8B1FFE7099800F0070029
:10808000C0F10800049009980499C943884205D8B2
:10809000FFE7049909980844099002E0002009903C
:1080A000FFE700E0FFE702E000200990FFE700E0C3
:1080B000FFE700F081FF40F29850C2F20000006834
:1080C00018B9FFE7FFF74CF900E0FFE79DF827003C
:1080D0000006002800F12881FFE70998002800F039
:1080E0002181FFE7099848F65451C2F2000109685E
:1080F000884200F21781FFE748F6CC50C2F2000038
:108100000790006808900899002040F21462C2F2BB
:108110000002914203900ED3FFE7089940F21460E9
:10812000C2F2000047F6FF7202440020914298BF5D
:1081300001200390FFE70398C00758B9FFE74FF00D
:10814000500080F31188BFF36F8FBFF34F8F0F90F4
:10815000FFE7FEE7FFE708984168099A002091428F
:10816000029007D2FFE708980068002818BF012096
:108170000290FFE70298C00768B3FFE708980790EE
:108180000898006808900899002040F21462C2F232
:108190000002914201900ED3FFE7089940F214606B
:1081A000C2F2000047F6FF7202440020914298BFDD
:1081B00001200190FFE70198C00758B9FFE74FF091
:1081C000500080F31188BFF36F8FBFF34F8F0E9075
:1081D000FFE7FEE7BFE7089840F29851C2F20001BE
:1081E0000968884200F09C80FFE707980068083023
:1081F00005900599002040F21462C2F200029142FB
:1082000000900ED3FFE7059940F21460C2F200001F
:1082100047F6FF7202440020914298BF012000906F
:10822000FFE70098C00758B9FFE74FF0500080F310
:108230001188BFF36F8FBFF34F8F0D90FFE7FEE7FD
:10824000089800680799086008984068099988426A
:108250000BD2FFE74FF0500080F31188BFF36F8F10
:10826000BFF34F8F0C90FFE7FEE70898406809992D
:10827000401A112825D3FFE7089809990844069069
:108280009DF81800400758B1FFE74FF0500080F309
:108290001188BFF36F8FBFF34F8F0B90FFE7FEE79F
:1082A000089840680999401A069948600998089901
:1082B0004860079800680699086006980799086062
:1082C00000E0FFE70898426848F65450C2F2000008
:1082D0000168891A0160006848F65C51C2F2000129
:1082E000096888420BD2FFE748F65450C2F20000FA
:1082F000006848F65C51C2F20001086000E0FFE748
:108300000899486840F000404860089900200860DB
:1083100048F66851C2F2000108680130086000E0C8
:10832000FFE700E0FFE700E0FFE702F03DFE9DF819
:108330001400400758B1FFE74FF0500080F3118858
:10834000BFF36F8FBFF34F8F0A90FFE7FEE70598EB
:1083500010B080BD81B040F28C50C2F200000068C5
:108360000090009828B1FFE70099086D013008657A
:10837000FFE7009801B0704783B00290019100922E
:1083800002980438029002994FF0807008600298B9
:1083900004380290019820F00100029908600298C8
:1083A00004380290029947F6A150C0F60000086018
:1083B00002981438029000980299086002980438D4
:1083C000029002996FF00200086002982038029033
:1083D000029803B07047000080B584B0039000F0AD
:1083E000A7F940F2BC40C2F2000069464860042090
:1083F000086046F6A120C0F600004BF6DA41C0F650
:1084000000014FF48072002301F094FE0290029864
:1084100001280FD1FFE740F2BC40C2F20000006823
:10842000FEF798FB01464BF6B040C0F60000FBF7A4
:1084300089FF06E04BF62240C0F60000FBF782FF02
:10844000FFE740F21060C2F2000069464860032076
:10845000086048F2B940C0F600004BF6CF41C0F6C4
:1084600000014FF44062002301F064FE0290029884
:1084700001280FD1FFE740F21060C2F2000000684F
:10848000FEF768FB01464BF6B040C0F60000FBF774
:1084900059FF06E04BF62240C0F60000FBF752FF02
:1084A000FFE740F20860C2F20000006800F042FB03
:1084B00000F06AF904B080BD80B5ACB02B9001200B
:1084C0000021032200F0E2FE014640F20C60C2F2FD
:1084D00000000160006838B1FFE74BF65B40C0F672
:1084E0000000FBF72FFF06E04BF6FF30C0F6000060
:1084F000FBF728FFFFE740F20C60C2F200000068C3
:108500000023019319461A4600F0FAFF019B6846C2
:1085100003604FF4A0700122194601F0ABFB014645
:1085200048F21C60C2F200000160006838B1FFE749
:108530004BF68540C0F60000FBF704FF06E04BF663
:108540003740C0F60000FBF7FDFEFFE700202A9051
:1085500002A8A021FBF757FFFFE748F21C60C2F218
:108560000000006802A9A0224FF0FF3301F00CFCCC
:108570002A902A9830B1FFE7BDF8A81002A8FDF7AD
:1085800061FBFFE7E9E7000082B001900198006914
:1085900000900198416880688860019948688968FE
:1085A0004860009840680199884205D1FFE701982A
:1085B00080680099486000E0FFE7019900200861A9
:1085C00000990868013808600098006802B0704798
:1085D00048F22060C2F200000068704783B0029049
:1085E00001910092029948F63C00C2F20000086036
:1085F000019948F23460C2F20000086000998220BC
:10860000086003B07047000083B0029001910092AF
:10861000029948F6A840C2F200000860019948F6A5
:108620009800C2F20000086000994FF48270086060
:1086300003B0704781B00090009901F108004860D4
:1086400000994FF0FF308860009901F10800C86080
:10865000009901F10800086100990020086001B04C
:108660007047000081B0009000990020086101B0BF
:108670007047000084B00390029102980068009057
:108680000098013020B9FFE703980069019010E0DD
:10869000039808300190FFE701984068006800994E
:1086A000884205D8FFE7FFE7019840680190F3E7AB
:1086B000FFE7019840680299486002984168886025
:1086C000019802998860029801994860039802997C
:1086D0000861039908680130086004B07047000021
:1086E00083B002900191029840680090009801992F
:1086F00048600098806801998860019800998968AD
:10870000486001980099886002980199086102996F
:1087100008680130086003B070470000DFF80C0003
:10872000016841F4700101607047000088ED00E0CD
:1087300082B04FF0500080F31188BFF36F8FBFF30A
:108740004F8F019040F20400C2F200000168013135
:1087500001600068012814D1FFE74EF60450CEF204
:1087600000000068000658B1FFE74FF0500080F3AA
:108770001188BFF36F8FBFF34F8F0090FFE7FEE7C5
:10878000FFE702B07047000082B040F20400C2F27E
:108790000000006858B9FFE74FF0500080F31188DF
:1087A000BFF36F8FBFF34F8F0090FFE7FEE740F2FC
:1087B0000400C2F20000016801390160006830B9AC
:1087C000FFE700200190019880F31188FFE702B0D5
:1087D0007047000080B588B0049004980390049816
:1087E000002800F07A80FFE7039808380390039888
:1087F00002900299002040F21462C2F200029142FB
:1088000001900ED3FFE7029940F21460C2F200001B
:1088100047F6FF7202440020914298BF0120019068
:10882000FFE70198C00758B9FFE74FF0500080F309
:108830001188BFF36F8FBFF34F8F0790FFE7FEE7FD
:108840000298C1790020B0EBD11F0BD1FFE74FF0A8
:10885000500080F31188BFF36F8FBFF34F8F0690E6
:10886000FFE7FEE70298006858B1FFE74FF05000BD
:1088700080F31188BFF36F8FBFF34F8F0590FFE731
:10888000FEE70298C1790020B0EBD11F23D0FFE7AB
:1088900002980068E8B9FFE70299486820F00040B4
:1088A000486000F089FB0298426848F65451C2F2D1
:1088B00000010868104408600298FEF7FBFE48F6C5
:1088C0006C51C2F2000108680130086002F06CFBD4
:1088D00000E0FFE700E0FFE7FFE708B080BD000031
:1088E0004EF21001CEF20001002008604EF2180294
:1088F000CEF20002106040F20000C2F200000068F8
:1089000044F6D352C1F26202A0FB02024FF0FF30E4
:1089100000EB92104EF21402CEF20002106007201B
:108920000860704784B0EFF305800190019810282B
:108930001ED3FFE701984EF2F031CEF20001405C09
:108940008DF803009DF8030048F21461C2F20001A3
:10895000097888420BDAFFE74FF0500080F3118866
:10896000BFF36F8FBFF34F8F0390FFE7FEE7FFE783
:108970004EF60C50CEF20000006800F4E06048F2C1
:108980001861C2F20001096888420BD9FFE74FF075
:10899000500080F31188BFF36F8FBFF34F8F0290A9
:1089A000FFE7FEE704B0704785B003900291002016
:1089B0000090039858B9FFE74FF0500080F31188FA
:1089C000BFF36F8FBFF34F8F0490FFE7FEE702986E
:1089D000C8B3FFE700200190FFE70198072831D8CE
:1089E000FFE70398019A48F68851C2F2000101EBB3
:1089F000C2014968884209D1FFE7019948F68850C9
:108A0000C2F2000000EBC10000901BE0009890B99A
:108A1000FFE7019948F68850C2F2000050F8310093
:108A200048B9FFE7019948F68850C2F2000000EB10
:108A3000C100009000E0FFE7FFE7FFE70198013089
:108A40000190CAE7FFE7009838B1FFE70298009964
:108A50000860039800994860FFE705B07047000080
:108A600080B584B003900291019203980090FFF7C3
:108A70005FFE009890F94400013028B9FFE70099A3
:108A8000002081F84400FFE7009890F9450001308C
:108A900028B9FFE70099002081F84500FFE7FFF7BC
:108AA00073FE0098806B38B9FFE700982430029974
:108AB000019A00F033F900E0FFE70098FFF7A6F90C
:108AC00004B080BD80B584B002900020019002986F
:108AD000E8B1FFE700F070FA48F22860C2F2000047
:108AE000006801280BD0FFE74FF0500080F3118899
:108AF000BFF36F8FBFF34F8F0390FFE7FEE702983E
:108B00000021FEF74BF802F04FFA019000E0FFE77A
:108B1000019860B9FFE74EF60451CEF200014FF024
:108B200080500860BFF34F8FBFF36F8F00E0FFE707
:108B300004B080BD80B586B0049000200290FFF79D
:108B4000F7FD049838B9FFE740F28C50C2F20000FC
:108B50000068009002E004980090FFE700980390FE
:108B600003980430FFF710FDE0B9FFE7FFE7039833
:108B7000C06A00EB800140F2A450C2F2000050F83D
:108B8000210068B9FFE70398C16A012000FA01F2E9
:108B900048F23061C2F20001086890430860FFE7C4
:108BA000FFE700E0FFE70398806A28B1FFE703983A
:108BB0001830FFF7E9FC00E0FFE748F22C61C2F251
:108BC0000001086801300860039840F28C51C2F23D
:108BD00000010968401AB0FA80F04009019048F697
:108BE000C850C2F200000068A8B1FFE7019890B138
:108BF000FFE70398011D48F6E850C2F20000FFF7B6
:108C00006FFD48F22461C2F200010868013008607B
:108C10000120029009E048F22061C2F200010868D8
:108C200001380860FFF752F8FFE7FFF7ADFD029843
:108C3000012804D0FFE70398FEF72EFBFFE748F674
:108C4000C850C2F20000006848B3FFE7039840F242
:108C50008C51C2F20001096888421ED1FFE748F238
:108C60002860C2F20000006858B1FFE74FF05000E2
:108C700080F31188BFF36F8FBFF34F8F0590FFE72D
:108C8000FEE74EF60451CEF200014FF0805008602E
:108C9000BFF34F8FBFF36F8F00E0FFE7FFE706B032
:108CA00080BD000081B0009048F66450C2F2000020
:108CB00000680099086048F6FC50C2F200000068A5
:108CC0000099486001B0704748F60861C2F200019F
:108CD000012008607047000080B584B002900191C7
:108CE000029858B9FFE74FF0500080F31188BFF3A6
:108CF0006F8FBFF34F8F0390FFE7FEE7029840F2BC
:108D00008C51C2F2000109681831FFF7B3FC0198D9
:108D10000121FDF743FF04B080BD000080B586B09F
:108D2000049003910292049858B9FFE74FF0500065
:108D300080F31188BFF36F8FBFF34F8F0590FFE76C
:108D4000FEE7FFE7049840680190019840F28C51DB
:108D5000C2F200010A68D061019880680A68106256
:108D600008681830019A9268506008681830019AB3
:108D70009060049809688862049908680130086066
:108D8000FFE7029820B1FFE74FF0FF300390FFE7C5
:108D900003980299FDF702FF06B080BD80B58AB046
:108DA00007900691079805900120029007980028E7
:108DB00000F0B680FFE70598006D58B9FFE74FF067
:108DC000500080F31188BFF36F8FBFF34F8F09906E
:108DD000FFE7FEE70598C06C0699884203D2FFE7DB
:108DE0000698039003E00598C06C0390FFE7059890
:108DF000C06A0399884200F09180FFE70598006DF2
:108E0000012840F08980FFE7059840F28C51C2F2BA
:108E10000001096888420BD1FFE74FF0500080F352
:108E20001188BFF36F8FBFF34F8F0890FFE7FEE706
:108E30000598C06A049003980599C8620598C07E99
:108E40000006002806D4FFE70398C0F10500059945
:108E5000886100E0FFE705984069049901EB810211
:108E600040F2A451C2F2000101EB8201884251D1CB
:108E7000FFE705980430FFF787FB68B9FFE705981F
:108E8000C16A012000FA01F248F23061C2F2000129
:108E900008689043086000E0FFE7FFE70598C16AB3
:108EA000012000FA01F248F23061C2F200010868C4
:108EB00010430860FFE70598C06A00EB800040F2AD
:108EC000A451C2F2000101EB8000406801900198BA
:108ED000059A906001988068059AD06005980430E2
:108EE000019A9268506005980430019A9060059A42
:108EF000D06A00EB800001EB800050610598C06AE9
:108F000000EB800251F82200013041F82200FFE717
:108F1000FFE700E0FFE700E0FFE700E0FFE700E039
:108F2000FFE70AB080BD000080B584B0FEF79EF870
:108F300001900198012804D1FFE702F05FF9019048
:108F400000E0FFE7019801281FD1FFE74FF0500034
:108F500080F31188BFF36F8FBFF34F8F039048F6F4
:108F60006051C2F200014FF0FF30086048F6C8516E
:108F7000C2F200010120086048F6FC51C2F2000173
:108F80000020086000F088F80FE00198013058B91F
:108F9000FFE74FF0500080F31188BFF36F8FBFF3EE
:108FA0004F8F0290FFE7FEE7FFE74BF60050C0F659
:108FB0000000006804B080BD48F22861C2F20001E0
:108FC000086801300860704785B048F22860C2F236
:108FD0000000006838B1FFE748F60861C2F20001FE
:108FE0000120086055E048F60861C2F20001002047
:108FF0000860FFE748F23060C2F2000000680490A9
:109000000498B0FA80F08DF80F009DF80F00C0F1C1
:109010001F000190019800EB800140F2A450C2F2C1
:10902000000050F8210058B9FFE74FF0500080F3DE
:109030001188BFF36F8FBFF34F8F0290FFE7FEE7FA
:10904000FFE7019800EB800140F2A450C2F200005B
:1090500000EB8100009000994868406848600099E2
:1090600048680831884204D1FFE70099C868486021
:10907000FFE700984068C06840F28C51C2F20001DE
:109080000860FFE7FFE740F28C50C2F20000006882
:10909000FFE705B07047000080B58CB04EF6005079
:1090A000CEF2000000684CF27121C4F20F11884228
:1090B0000BD1FFE74FF0500080F31188BFF36F8FA3
:1090C000BFF34F8F0B90FFE7FEE74EF60050CEF256
:1090D000000000684CF27021C4F20F1188420BD1DD
:1090E000FFE74FF0500080F31188BFF36F8FBFF39D
:1090F0004F8F0A90FFE7FEE74EF60850CEF20000D1
:10910000006805900598C06A46F26121C0F600012A
:1091100088420BD0FFE74FF0500080F31188BFF377
:109120006F8FBFF34F8F0990FFE7FEE70598806BC5
:1091300045F6B171C0F6000188420BD0FFE74FF051
:10914000500080F31188BFF36F8FBFF34F8F0890EB
:10915000FFE7FEE7002003904EF20040CEF2000051
:10916000029001788DF81310FF21017000788DF8BE
:1091700007009DF8070000F0500148F21460C2F2A9
:1091800000000170007858B9FFE74FF0500080F3FD
:109190001188BFF36F8FBFF34F8F0790FFE7FEE794
:1091A0009DF80700C04310F0500F0BD0FFE74FF0C1
:1091B000500080F31188BFF36F8FBFF34F8F06907D
:1091C000FFE7FEE7FFE79DF807000006002809D546
:1091D000FFE70398013003909DF8070040008DF8E9
:1091E0000700F0E70398082807D1FFE748F2186165
:1091F000C2F200010020086008E00398C0F10700F7
:1092000048F21861C2F200010860FFE748F21861F5
:10921000C2F20001086800020860086800F4E0601B
:1092200008609DF813004EF20041CEF20001087074
:109230004EF62051CEF20001086840F47F0008602D
:10924000086840F07F4008604EF61C51CEF20001E5
:10925000002000900860FFF743FB009840F20401F3
:10926000C2F200010860FFF759FA4EF63471CEF2EF
:109270000001086840F040400860FEF71FFBFFF760
:10928000A3FEFEF78DFD00980CB080BD80B588B0C0
:10929000069005918DF81320002003900698A0B346
:1092A000FFE706994FF0FF30B0FBF1F005998842D7
:1092B0002BD3FFE706980599484310F1510F24D8A6
:1092C000FFE7069805994843029002985030FEF750
:1092D000BFFE03900398B0B1FFE703980190019897
:1092E000503001900399002081F8460006980599B6
:1092F000019A9DF81330DDF80CC0EE46CEF800C0A0
:10930000FEF7A0F800E0FFE70EE0039858B9FFE78A
:109310004FF0500080F31188BFF36F8FBFF34F8F72
:109320000790FFE7FEE7FFE7039808B080BD000065
:1093300080B58CB084460E98CDF820C00791069277
:1093400005938DF8130000200390059858B9FFE7A6
:109350004FF0500080F31188BFF36F8FBFF34F8F32
:109360000B90FFE7FEE70898A0B3FFE7059888B3E6
:10937000FFE7069818B1FFE7079858B3FFE706988C
:1093800018B9FFE7079828BBFFE750200290029822
:1093900050280BD0FFE74FF0500080F31188BFF347
:1093A0006F8FBFF34F8F0A90FFE7FEE70298059893
:1093B00003900399012081F8460008980799069ABE
:1093C0009DF81330DDF80CC0EE46CEF800C0FEF775
:1093D00039F80EE0039858B9FFE74FF0500080F3DA
:1093E0001188BFF36F8FBFF34F8F0990FFE7FEE740
:1093F000FFE703980CB080BD80B586B00390029162
:109400000120019003980090009858B9FFE74FF0B1
:10941000500080F31188BFF36F8FBFF34F8F05901B
:10942000FFE7FEE70098002856D0FFE70098C06BE2
:10943000002851D0FFE70098C26B016C4FF0FF305D
:10944000B0FBF2F0884247D3FFE7FFF771F90099CC
:109450000B68C86B0A6C00FB023088600099002022
:10946000886300990868486000990B68C86B0A6CAB
:10947000013800FB0230C8600099FF2081F84400E9
:10948000009981F845000298D0B9FFE7009800697B
:10949000A0B1FFE70098103001F0B6FC60B1FFE723
:1094A0004EF60451CEF200014FF080500860BFF339
:1094B0004F8FBFF36F8F00E0FFE700E0FFE708E0AA
:1094C00000981030FFF7B6F800982430FFF7B2F894
:1094D000FFE7FFF759F902E000200190FFE701984C
:1094E00058B9FFE74FF0500080F31188BFF36F8F3A
:1094F000BFF34F8F0490FFE7FEE7019806B080BDF1
:1095000080B592B00C900B910A92099300200890BC
:109510000C980490049858B9FFE74FF0500080F37E
:109520001188BFF36F8FBFF34F8F1190FFE7FEE7F6
:109530000B990020039039B9FFE70498006C0028CC
:1095400018BF01200390FFE70398C00758B1FFE759
:109550004FF0500080F31188BFF36F8FBFF34F8F30
:109560001090FFE7FEE7099900200229029007D139
:10957000FFE70498C06B013818BF01200290FFE795
:109580000298C00758B1FFE74FF0500080F31188F0
:10959000BFF36F8FBFF34F8F0F90FFE7FEE701F030
:1095A0007FF901460020019031B9FFE70A980028B1
:1095B00018BF01200190FFE70198C00758B1FFE7ED
:1095C0004FF0500080F31188BFF36F8FBFF34F8FC0
:1095D0000E90FFE7FEE7FFE7FFF7AAF80498806B1D
:1095E0000499C96B884204D3FFE70998022834D153
:1095F000FFE704980B99099AFDF7D2FC07900498AD
:10960000406AA0B1FFE70498243001F0FDFB60B18F
:10961000FFE74EF60451CEF200014FF08050086093
:10962000BFF34F8FBFF36F8F00E0FFE710E00798A5
:1096300060B1FFE74EF60451CEF200014FF08050CA
:109640000860BFF34F8FBFF36F8F00E0FFE7FFE7C6
:10965000FFF79AF801200D9065E00A9828B9FFE716
:10966000FFF792F800200D905DE0089830B9FFE711
:1096700005A8FFF717FB0120089000E0FFE7FFE7D0
:10968000FFE7FFF781F8FFF797FCFFF751F8049821
:1096900090F94400013028B9FFE70499002081F8CF
:1096A0004400FFE7049890F94500013028B9FFE72E
:1096B0000499002081F84500FFE7FFF765F805A849
:1096C0000AA900F0CDFC28BBFFE70498FEF7DEF8FE
:1096D000C8B1FFE7049810300A99FFF7FDFA049823
:1096E000FEF794FB01F060FC60B9FFE74EF6045111
:1096F000CEF200014FF080500860BFF34F8FBFF3F0
:109700006F8FFFE705E00498FEF780FB01F04CFC4B
:10971000FFE707E00498FEF779FB01F045FC002025
:109720000D9000E058E70D9812B080BD80B590B064
:109730000890079108980490049858B9FFE74FF0F3
:10974000500080F31188BFF36F8FBFF34F8F0C90E1
:10975000FFE7FEE70498006C58B1FFE74FF05000B8
:1097600080F31188BFF36F8FBFF34F8F0B90FFE72C
:10977000FEE7049801680020009039B9FFE70498DB
:109780008068002818BF01200090FFE70098C007FC
:1097900058B1FFE74FF0500080F31188BFF36F8F8F
:1097A000BFF34F8F0A90FFE7FEE7FFF7BBF8EFF339
:1097B00011814FF0500080F31188BFF36F8FBFF31A
:1097C0004F8F0E910D900E9805900498806B03902A
:1097D00003980499C96B88424BD2FFE7049890F82C
:1097E00045008DF80B0003980130049988639DF9BA
:1097F0000B000130B8B9FFE70498406A88B1FFE771
:109800000498243001F000FB48B1FFE7079820B12D
:10981000FFE707990120086000E0FFE700E0FFE7AD
:1098200000E0FFE722E0FFE7FEF7D2FE01909DF99E
:109830000B000199884217D2FFE79DF90B007F28A2
:109840000BD1FFE74FF0500080F31188BFF36F8F0B
:10985000BFF34F8F0990FFE7FEE79DF80B00013043
:10986000049981F84500FFE7FFE7FFE70120069034
:1098700002E000200690FFE705980F900F9880F314
:109880001188069810B080BD80B58EB009900891FF
:1098900007920020069009980390039858B9FFE7B3
:1098A0004FF0500080F31188BFF36F8FBFF34F8FDD
:1098B0000D90FFE7FEE708990020019039B9FFE716
:1098C0000398006C002818BF01200190FFE7019861
:1098D000C00758B1FFE74FF0500080F31188BFF385
:1098E0006F8FBFF34F8F0C90FFE7FEE700F0D8FFBC
:1098F00001460020009031B9FFE70798002818BF03
:1099000001200090FFE70098C00758B1FFE74FF033
:10991000500080F31188BFF36F8FBFF34F8F0B9010
:10992000FFE7FEE7FFE7FEF703FF0398806B029077
:10993000029830B3FFE703980899FDF70FFB0298F0
:1099400001380399886303980069A0B1FFE7039881
:10995000103001F059FA60B1FFE74EF60451CEF233
:1099600000014FF080500860BFF34F8FBFF36F8F3F
:1099700000E0FFE700E0FFE7FEF706FF01200A90A6
:109980006DE0079828B9FFE7FEF7FEFE00200A9079
:1099900065E0069830B9FFE704A8FFF783F90120D6
:1099A000069000E0FFE7FFE7FFE7FEF7EDFEFFF7B9
:1099B00003FBFEF7BDFE039890F94400013028B97F
:1099C000FFE70399002081F84400FFE7039890F92E
:1099D0004500013028B9FFE70399002081F84500D0
:1099E000FFE7FEF7D1FE04A807A900F039FB30BB62
:1099F000FFE70398FDF736FFD0B1FFE70398243067
:109A00000799FFF769F90398FEF700FA01F0CCFA1D
:109A100060B9FFE74EF60451CEF200014FF08050DE
:109A20000860BFF34F8FBFF36F8F00E0FFE705E0E3
:109A30000398FEF7EBF901F0B7FAFFE70EE00398A1
:109A4000FEF7E4F901F0B0FA0398FDF70BFF18B147
:109A5000FFE700200A9002E0FFE7FFE763E70A98CC
:109A60000EB080BD80B58EB009900891002007909F
:109A7000099904910390049858B9FFE74FF05000FA
:109A800080F31188BFF36F8FBFF34F8F0D90FFE707
:109A9000FEE70498006C58B1FFE74FF0500080F3E8
:109AA0001188BFF36F8FBFF34F8F0C90FFE7FEE776
:109AB00000F0F6FE01460020009031B9FFE708985B
:109AC000002818BF01200090FFE70098C00758B198
:109AD000FFE74FF0500080F31188BFF36F8FBFF3A3
