:020000040800F2
:10000000780C0020650200087F0C00086F020008D1
:100010007D0C0008D306000825130008000000002E
:10002000000000000000000000000000770200084F
:100030007D0A0008000000007B0200087D02000825
:100040007F0200087F0200087F0200087F0200088C
:100050007F0200087F0200087F0200087F0200087C
:100060007F0200087F0200087F0200087F0200086C
:100070007F0200087F0200087F0200087F0200085C
:100080007F0200087F0200087F0200087F0200084C
:100090007F0200087F0200087F0200087F0200083C
:1000A0007F0200087F0200087F0200087F0200082C
:1000B0007F0200087F0200087F0200087F0200081C
:1000C0007F0200087F0200087F0200087F0200080C
:1000D0007F020008B10F00087F0200087F020008BD
:1000E0007F0200087F0200087F0200087F020008EC
:1000F0007F0200087F0200087F0200087F020008DC
:100100007F0200087F0200087F0200087F020008CB
:100110007F0200087F0200087F0200087F020008BB
:100120007F0200087F0200087F0200087F020008AB
:100130007F0200087F0200087F0200087F0200089B
:100140007F0200087F0200087F0200087F0200088B
:10015000D50600087F0200087F0200087F02000821
:100160007F0200087F0200087F0200087F0200086B
:100170007F0200087F0200087F0200087F0200085B
:100180007F0200087F02000800F002F800F05BF830
:1001900014A696E8000CB244B344DA4501D100F04D
:1001A00052F8BAE80F000FA696E83000A5EB040558
:1001B00004EB0607AAEB0704A7F101074FEA1515A0
:1001C0004FEA3414A4F10104AC4201D300F03BF82F
:1001D00013F0010F18BFFB1A43F0010300F001F800
:1001E000DBE71847FC1200001C130000103A24BF84
:1001F00078C878C1FAD8520724BF30C830C144BF8C
:1002000004680C6070470000704700000023002461
:1002100000250026103A28BF78C1FBD8520728BF16
:1002200030C148BF0B6070471FB501F03FF900F0C7
:10023000EFF904000020002101F022F9401C606069
:100240001FBD10B510BD00F0BEF91146FFF7ECFF61
:1002500001F002F900F0EEF903B4FFF7F2FF03BC7E
:1002600000F030FA0948804709480047FEE7FEE7FA
:10027000FEE7FEE7FEE7FEE7FEE7FEE7FEE7FEE756
:1002800004480549054A064B70470000290E00083E
:100290008901000878060020780C002078080020EA
:1002A0007808002070B5064600F0C4F804680546DA
:1002B00030460A22002100F0C1F82C6070BD40EAEF
:1002C000010310B59B070FD1042A0DD310C808C92C
:1002D000121F9C42F8D020BA19BA884201D90120D5
:1002E00010BD4FF0FF3010BD1AB1D30703D0521C20
:1002F00007E0002010BD10F8013B11F8014B1B1B5B
:1003000007D110F8013B11F8014B1B1B01D1921EC4
:10031000F1D1184610BD10B5431C02E010F8011BC6
:1003200071B18107FAD14FF0013202C88C1A8C43A7
:1003300014EAC211F9D0C01A0A0603D0C01E10BDBB
:10034000C01A10BD0A0401D0801E10BD0902FCD0E5
:10035000401E10BD032A40F2308010F0030C00F064
:10036000158011F8013BBCF1020F624498BF11F8EF
:1003700001CB00F8013B38BF11F8013BA2F10402A8
:1003800098BF00F801CB38BF00F8013B11F0030320
:1003900000F08C80083AC0F0088051F8043B083A1D
:1003A00051F804CBA0E80810F5E7121D5CBF51F826
:1003B000043B40F8043BAFF30080D20724BF11F8A0
:1003C000013B11F801CB48BF11F8012B24BF00F805
:1003D000013B00F801CB48BF00F8012B70474FF0FC
:1003E000000200B5134694469646203922BFA0E885
:1003F0000C50A0E80C50B1F12001BFF4F7AF090791
:1004000028BFA0E80C5048BF0CC05DF804EB890081
:1004100028BF40F8042B08BF704748BF20F8022BC4
:1004200011F0804F18BF00F8012B704770477047DC
:100430007047000000487047100000202DE9F04789
:1004400091460F4680460446002614F8015B2DB104
:1004500000F062F80068405DC007F6D12B2D02D095
:100460002D2D18D0641E4A463946204600F05CF80F
:1004700027B13968A14201D1C7F800804FF00204CA
:1004800071050BD54042002803DDFFF7D3FF046060
:10049000A007BDE8F08746F48066E4E70028F8DAB4
:1004A000FFF7C8FF04606FF00040F2E710B5203A94
:1004B000C0F00B80B1E81850A0E81850B1E818500F
:1004C000A0E81850203ABFF4F5AF5FEA027C24BFE1
:1004D000B1E81850A0E8185044BF18C918C0BDE8CA
:1004E00010405FEA827C24BF51F8043B40F8043B93
:1004F00008BF7047D20728BF31F8023B48BF11F848
:10050000012B28BF20F8023B48BF00F8012B7047A1
:10051000004870471000002010B500F079F8001D69
:1005200010BD00BF5D0F00002DE9F05F824615464B
:100530008B4600270AF10104B9460078302801D023
:100540009DB113E014F8010B0127782803D0582837
:1005500001D045B10AE00DB1102D07D1002714F8E4
:10056000010B102502E0082500E00A250026B04610
:100570000EE005FB080005FB06F101271FFA80F8D5
:1005800001EB1046B6F5803F00D3B94614F8010BD5
:10059000294600F041F80028EBDABBF1000F05D046
:1005A0000FB1641E00E05446CBF80040B9F1000FD3
:1005B00006D0FFF73FFF02210160C81EBDE8F09F93
:1005C00048EA0640FAE77546FFF7A2FFAE46050087
:1005D0006946534620F00700854618B020B5FFF75E
:1005E0004FFEBDE820404FF000064FF000074FF0EF
:1005F00000084FF0000BAC46ACE8C009ACE8C009FD
:10060000ACE8C009ACE8C00921F007018D4670478D
:1006100000487047300000203A2800D2303820F0DF
:100620002002412A01D3A2F13700884201D34FF0C2
:10063000FF30704710B50446AFF300802046BDE898
:100640001040FFF709BE000030B44FF0013C50F8F5
:10065000042B51F8043BCCFA52F4D51A20D1FCB942
:1006600050F8042B51F8043BCCFA52F4D51A17D1A8
:10067000B4B950F8042B51F8043BCCFA52F4D51A13
:100680000ED16CB950F8042B51F8043BCCFA52F45B
:10069000D51A05D1002CDAD030BC4FF000007047DD
:1006A00029BAB1FA81F111F01801D1F1200084408A
:1006B000F2D1CA40CB4012F0FF0213F0FF0330BC6E
:1006C000D01A704701491820ABBEFEE72600020091
:1006D0007047FEE7B0B5BA4CBC4D2046294600F045
:1006E000C7F828B120462946BDE8B04000F002B85E
:1006F000B0BD00BF10B56D4A564B0A401C1D8900A5
:10070000584905D4A04228BF01F580610A6010BD98
:10071000A04238BF0B1D1A6010BD00BF026800293F
:1007200022F0010218BF013202607047016821F017
:10073000010101600021016041608160C1600161CF
:1007400021214161CB4988422FD03449884230D0A1
:100750003349884231D03349884232D032498842C5
:1007600033D03249884233D03149884233D031497D
:10077000884233D03049884235D03049884235D01C
:100780002F49884236D02F49884237D02E49884297
:100790003AD08B4988423AD02C4988423AD02C49E9
:1007A00088423AD12F483D2136E02A484FF03D514A
:1007B00032E02C484FF474612EE02A484FF4741153
:1007C0002AE028484FF0746126E02648244908E0D2
:1007D0002448224905E023481F4902E021484FF000
:1007E0003D51416070471F483D210AE01D484FF4CC
:1007F000746106E01B484FF4741102E019484FF091
:100800007461C0F8001470471248154904E011489B
:10081000124901E00F48104901607047286002400A
:1008200040600240586002407060024088600240B0
:10083000A0600240B8600240106402402864024098
:10084000406402405864024070640240A064024068
:10085000106002400C64024000003D20400F002068
:100860003D00002008600240006800F00100704771
:1008700010B50C4A0C4C02F10C03984204F5806050
:1008800038BF221D3CBF46F20000C4F202008B00BC
:1008900048BF1046006808400449084018BF0120BE
:1008A00010BD00BF04640240006002407D0F7D0F58
:1008B0000B0604D5436952B143F08003436180299C
:1008C00011D04AB1026801F01E0111430AE023F081
:1008D00080028029426106D06FF01E0262EA0101A7
:1008E000026811400160704770B50268124B01F157
:1008F0000C0670CE1A400B681A438B6922433243B0
:100900001A43CB691A430B6A1A434B6A1A438B6A20
:100910001A434B6B1A438B6B1A430260CA6A4369D2
:1009200023F007031A430B6B1A43426145604A6880
:1009300082608968C16070BD3F801CF04160704773
:1009400010B590B000F0D4F91D4C2046FFF7EEFE34
:100950002046FFF789FF0028FAD14FF480310020AC
:100960000A914FF480710B90CDE90700CDE90C009E
:100970000E9009914FF48061CDE90501CDE90301A5
:100980001049204602912A4901914FF000610091DF
:100990006946FFF7A9FF0C480F900FA800F070F907
:1009A000204610210122FFF783FF08492046FFF768
:1009B000A1FE20460121FFF7B1FE10B010BD00BF1F
:1009C00088640240740000204400010100080020F7
:1009D00010B590B000F08CF9264C2046FFF7A6FE2B
:1009E0002046FFF741FF0028FAD100204FF4803164
:1009F000CDE90A014FF480610C90CDE90800CDE902
:100A00000D000F90CDE906014FF4007120460591CD
:100A10004021049118490391054902914FF000616A
:100A2000019101A9FFF760FF00F054F910B010BD6B
:100A30000410014070B50F4C0D4606464FF0205192
:100A40002046FFF757FE0C4831462A46FFF782FC46
:100A500000F040F92046FFF707FF0028FAD12046B2
:100A60002946FFF76BFF20460121BDE87040FFF7E4
:100A700055BE00BFB86402407404002070470000F7
:100A800026490860704700BF70B50D4600F035F983
:100A9000092823D12D4E032D306820F4407030609A
:100AA0004FF4407038BF2802316808433060306826
:100AB00020F0F80030603068204340F002003060E1
:100AC000306840F48030306000F054F8316821F034
:100AD00002013160316821F0F801316070BD00BF62
:100AE0000E480168C90344BF012070470168C90668
:100AF00044BF062070470168C90544BF0220704703
:100B0000016811F0E00F1CBF0720704700688007E4
:100B10004FF0080058BF0920704700BF0C3C02404E
:100B20000A48016841F000410160704770B500F06B
:100B3000F3F8092809D1054E00F0E8F800F0E0F8D4
:100B40002C7000F017F800F0EBF870BD103C02407C
:100B50000548C168B1F1FF3F00DD704703490160FE
:100B600003490160704700BF043C02402301674510
:100B7000AB89EFCDE0B509208DF80700FFF7B0FF96
:100B80008DF807009DF807000128F7D09DF80700B1
:100B90008CBD2DE9F043D1F8008000234FF0010E09
:100BA0004FF0030C0026102E08BFBDE8F0830EFAAC
:100BB00006F918EA090F29D004680CFA03F5AC43CA
:100BC000ED4304600C79076804FA03F23A430260CB
:100BD000621E012A12D882682A4082604A798C7982
:100BE00087689A403A438260426822EA090242607A
:100BF00004FA06F2446892B222434260C2682A4074
:100C0000C260CA79C4689A402243C2600233013686
:100C1000C9E7B0B51C236FF003050F2403EA810375
:100C200005EA510108449C40016AA143016202FAAD
:100C300003F1026A11430162B0BD816170474269EC
:100C400051404161704700001CB52020012100F097
:100C50006DF84FF4C060084C69460090054801905B
:100C60002046FFF796FF20464FF4C061FFF7E5FFEF
:100C70001CBD00BF0103000100140240FEE77047E5
:100C800070B5C2781149AAB1114A07231268457894
:100C90008678047823EA12220F23D340C2F104029B
:100CA000D2B2334005FA02F21A430B19120183F84B
:100CB000002300E080310078012300F01F02C0F320
:100CC000421003FA02F241F8202070BD00E100E07A
:100CD0000CED00E020460021FFF720BD016821F067
:100CE00001010160002181607047012100F02AB8F4
:100CF0004FF48000012100F019B80446FFF73ABF15
:100D00003060306840F0010030607047306820F497
:100D100040703060306870470C460546FFF72ABFC8
:100D2000316821F00101316070470000044A002958
:100D300011680CBF21EA000008431060704700BF33
:100D400030380240044A002911680CBF21EA000033
:100D500008431060704700BF20380240044A002951
:100D600011680CBF21EA000008431060704700BF03
:100D700044380240044A002911680CBF21EA0000EF
:100D800008431060704700BF2438024010B51C496A
:100D90004A6802F00C031B4A082B03D0042B17D11E
:100DA000194A15E00B685B02174B58BF13460A68D7
:100DB000022402F03F02B3FBF2F20B68C3F3881384
:100DC0005A430B68C3F3014304EB4303B2FBF3F252
:100DD00002600E4C4B68C3F30313E35CDA404260DD
:100DE0004B68C3F38223E35C22FA03F38360496810
:100DF000C1F34231615C22FA01F1C16010BD00BF54
:100E0000043802400024F40000127A00C6140008DE
:100E1000044904280A6822F0040208BF04320A6068
:100E2000704700BF10E000E01CB53348344CD0F8E8
:100E3000801041F47001C0F8801030490A6842F017
:100E400001020A6000228A600B6823400B602D4B70
:100E50004B600B6823F480230B60CA600192009200
:100E60000A6842F480320A600A6802F40032009292
:100E7000019A01320192009A1AB9019AB2F5A04F73
:100E8000F2D10A68920354BF002201220092009A14
:100E9000012A2CD10A6C42F080520A641A4A136863
:100EA00043F4404313608A688A608A6842F40042CF
:100EB0008A608A6842F4A0528A60144A4A600A68CA
:100EC00042F080720A600A689201FCD540F2057215
:100ED000C1F800248A6822F003028A608A6842F01E
:100EE00002028A608A6802F00C02082AFAD14FF0E6
:100EF000006101601CBD00BF08ED00E00038024049
:100F0000FFFFF6FE10300024007000400854400738
:100F100070B588B0C14C0546204600F01BF9012091
:100F20000121FFF703FF10200121FFF717FF04F550
:100F30007046092107223046FFF76BFE30460A2132
:100F40000722FFF766FE184807904FF4C06006902E
:100F500006A93046FFF71DFE0020ADF81400CDE9CC
:100F600002504FF44020049002A9204600F086F978
:100F70000E48019001A8FFF783FE2046012100F0F2
:100F8000D6F8204640F22441012200F061F92046C3
:100F90008021012200F0D5F820464021012200F0F6
:100FA000D0F808B070BD00BF0203000125010001A8
:100FB0002DE9F041474C40F22441204600F030F941
:100FC00040B3DFF814812088A088444C98F80000D2
:100FD000022821D001283CD000286AD146484B493C
:100FE0000922FFF76CF930B90120082188F80000C8
:100FF0004648FFF71FFD404845A10822FFF75FF96B
:10100000002856D1032088F800003548006800F019
:101010001CFA4EE0BDE8F081FFF79AFDF320FFF7E0
:101020002FFD2F4E344D0027F0686168C1F58061B7
:101030008F4229D2B168884226D2E95D7068FFF7F5
:1010400075FD7168F068013701300131F060716041
:10105000EBE72948FFF726F9284B421E20499A4220
:1010600088601AD80022CA600A684A6011181046BF
:1010700000F09AF9204D022088F800002846FFF77A
:101080004AF981B2284612E0FFF74AFDD6E902018B
:1010900081420AD114A00D2101E019A00921FFF716
:1010A000C9FC002088F8000003E00EA00221FFF731
:1010B000C1FC11484FF480614FF48065FFF78FF950
:1010C000FFF708FE656020460121BDE8F041FFF70B
:1010D00025BB00BF00100140740600208864024058
:1010E000000000204F4B0000646F776E6C6F6164EE
:1010F000206F76657200000074000020FEBF0100C2
:1011000073697A654572726F72000000D614000828
:10111000457865637574650080B54FF4E130FFF77D
:10112000F7FEFFF755FCBDE88040FFF709BC00293A
:1011300018BF0121828922F4005242EA41318181A3
:101140007047002A828A0CBF22EA01011143818282
:101150007047000080B52B4988421BD02A4988423D
:101160001FD02A49884223D02949884227D02949BB
:1011700088422BD0284988422FD06949884237D0ED
:101180002649884218BF80BD10200121FFF7F2FDDB
:10119000102032E04FF40030FFF7A7FD4FF400308D
:1011A00021E04FF48020FFF7A0FD4FF480201AE0EB
:1011B0004FF40020FFF799FD4FF4002013E04FF4A7
:1011C0008010FFF792FD4FF480100CE04FF080404C
:1011D000FFF78BFD4FF0804005E04FF00040FFF738
:1011E00084FD4FF000400021BDE88040FFF7AABD1C
:1011F00020200121FFF7BEFD20200021BDE8804016
:10120000FFF7B8BD0044004000480040004C0040DB
:101210000050004000780040007C00400010014079
:10122000C1F34212022A06D0012A14BF00F11402AF
:1012300000F10C0201E000F110021288008801F0B8
:101240001F03090ADA40C840104000F0010070474F
:1012500010B501F01F03012404FA03F3C1F3421493
:101260001421022C08BF1021012C08BF0C21002AD8
:1012700042580CBF9A431A43425010BD7FB50446F2
:101280000D46C8886E46218A21F4405108434EF627
:10129000F3112082A0890840A988084329890843BE
:1012A00069890843A081A889A18A21F44071084373
:1012B000A0823046FFF76AFD194944F480606FF060
:1012C0006303884214BF06F1080006F10C000068B1
:1012D000192101224843B4F90C10B1F1FF3FC8BFF6
:1012E0000222296803259140B0FBF1F06421B0FB94
:1012F000F1F202FB0300B4F90C30B3F1FF3FC8BFB9
:101300000425A8403230B0FBF1F00721B3F1FF3FD4
:10131000C8BF0F21084040EA021020817FBD00BFF6
:1013200000140140FEE7000010B504466FF0040011
:10133000FFF76EFD1A49E0084FF47A7208705043C7
:10134000488010BD70B504464FF40770B4FBF0F54B
:101350002E46300605D04FF4077000F00FF8013E1E
:10136000F7E74FF4077005FB1040010408BF70BD9C
:1013700080B2BDE8704000F001B80000084949881B
:1013800041430848416000218160016841F001014A
:101390000160016801F001110129FAD0FFF79EBC3C
:1013A0007000002010E000E0B0B50D4600F016F827
:1013B0000446284600F012F80546FFF7C9FBF32063
:1013C000FFF75EFBAC4205D820460221FFF75CFB2D
:1013D0000834F7E7BDE8B040FFF7A2BB00F1784161
:1013E000880B06D00138032805D2082101EBC00084
:1013F00029E0002027E0B1F5003F01D2202022E0C3
:10140000B1F5802F01D228201DE0B1F5C02F01D207
:10141000302018E0B1F5002F01D2382013E0B1F5EB
:10142000202F01D240200EE0B1F5402F01D24820FC
:1014300009E0B1F5602F01D2502004E00020B1F5A1
:10144000801F38BF582080B2704772B6416800686C
:1014500080F3088808470000A820FFF765FFFFF722
:10146000F3FBFFF759FE054C20464FF40071FFF7E0
:10147000E6FB4FF47A70FFF765FFF5E700140240D2
:1014800010B500290AD00878002807D0054878440C
:10149000FFF7DAF8002801D0002010BD0248784498
:1014A00010BD0000720000006A000000F1EE100A9A
:1014B0004FF6FF71C0F2C03120EA010040F04070E9
:1014C000E1EE100A7047000000000102030401026F
:1014D000030406070809446F776E6C6F61640000AF
:1014E000101600080000002010000000EC010008A9
:1014F0002016000810000020680C00000C020008F4
:101500001001000043000000F8FFFFFF00404040D2
:1015100040404040404041414141414040404040C6
:101520004040404040404040404040404005020272
:101530000202020202020202020202020220202031
:10154000202020202020200202020202020290908D
:10155000909090901010101010101010101010108B
:1015600010101010101010100202020202028888DF
:1015700088888888080808080808080808080808EB
:1015800008080808080808080202020240000000D3
:10159000000000000000000000000000000000004B
:1015A000000000000000000000000000000000003B
:1015B000000000000000000000000000000000002B
:1015C000000000000000000000000000000000001B
:1015D000000000000000000000000000000000000B
:1015E00000000000000000000000000000000000FB
:1015F00000000000000000000000000000000000EB
:1016000000000000000000000000000000000000DA
:10161000004000080040000800000000000000003A
:040000050800018965
:00000001FF
