:020000040800F2
:10000000780C002055020008870A00085F020008EB
:10001000850A0008DF040008CD1100080000000078
:10002000000000000000000000000000670200085F
:1000300091080008000000006B0200086D02000833
:100040006F0200086F0200086F0200086F020008CC
:100050006F0200086F0200086F0200086F020008BC
:100060006F0200086F0200086F0200086F020008AC
:100070006F0200086F0200086F0200086F0200089C
:100080006F0200086F0200086F0200086F0200088C
:100090006F0200086F0200086F0200086F0200087C
:1000A0006F0200086F0200086F0200086F0200086C
:1000B0006F0200086F0200086F0200086F0200085C
:1000C0006F0200086F0200086F0200086F0200084C
:1000D0006F020008750F00086F0200086F02000829
:1000E0006F0200086F0200086F0200086F0200082C
:1000F0006F0200086F0200086F0200086F0200081C
:100100006F0200086F0200086F0200086F0200080B
:100110006F0200086F0200086F0200086F020008FB
:100120006F0200086F0200086F0200086F020008EB
:100130006F0200086F0200086F0200086F020008DB
:100140006F0200086F0200086F0200086F020008CB
:10015000E10400086F0200086F0200086F02000847
:100160006F0200086F0200086F0200086F020008AB
:100170006F0200086F0200086F0200086F0200089B
:100180006F0200086F02000800F002F800F052F859
:1001900014A696E8000CB244B344DA4501D100F04D
:1001A00049F8BAE80F000FA696E83000A5EB040561
:1001B00004EB0607AAEB0704A7F101074FEA1515A0
:1001C0004FEA3414A4F10104AC4201D300F032F838
:1001D00013F0010F18BFFB1A43F0010300F001F800
:1001E000DBE718470012000020120000103A24BF7D
:1001F00078C878C1FAD8520724BF30C830C144BF8C
:1002000004680C6070470000704700000023002461
:1002100000250026103A28BF78C1FBD8520728BF16
:1002200030C148BF0B6070471FB501F0BDF81FBD5E
:1002300010B510BD00F01AF91146FFF7F5FF01F0F7
:1002400027F800F038F903B4FFF7F2FF03BC00F021
:100250003FF900000948804709480047FEE7FEE7EC
:10026000FEE7FEE7FEE7FEE7FEE7FEE7FEE7FEE766
:1002700004480549054A064B70470000350C000844
:100280008901000878060020780C002078080020FA
:100290007808002040EA010310B59B070FD1042A1B
:1002A0000DD310C808C9121F9C42F8D020BA19BA41
:1002B000884201D9012010BD4FF0FF3010BD1AB1A6
:1002C000D30703D0521C07E0002010BD10F8013BFB
:1002D00011F8014B1B1B07D110F8013B11F8014B22
:1002E0001B1B01D1921EF1D1184610BD10B5431C45
:1002F00002E010F8011B71B18107FAD14FF0013211
:1003000002C88C1A8C4314EAC211F9D0C01A0A062A
:1003100003D0C01E10BDC01A10BD0A0401D0801E3B
:1003200010BD0902FCD0401E10BD032A40F23080EF
:1003300010F0030C00F0158011F8013BBCF1020F26
:10034000624498BF11F801CB00F8013B38BF11F8A7
:10035000013BA2F1040298BF00F801CB38BF00F8BE
:10036000013B11F0030300F04F80083AC0F0088011
:1003700051F8043B083A51F804CBA0E80810F5E71F
:10038000121D5CBF51F8043B40F8043BAFF3008002
:10039000D20724BF11F8013B11F801CB48BF11F877
:1003A000012B24BF00F8013B00F801CB48BF00F847
:1003B000012B70474FF0000200B513469446964655
:1003C000203922BFA0E80C50A0E80C50B1F1200168
:1003D000BFF4F7AF090728BFA0E80C5048BF0CC016
:1003E0005DF804EB890028BF40F8042B08BF704774
:1003F00048BF20F8022B11F0804F18BF00F8012BE6
:10040000704770477047704710B5203AC0F00B80B6
:10041000B1E81850A0E81850B1E81850A0E81850FA
:10042000203ABFF4F5AF5FEA027C24BFB1E8185070
:10043000A0E8185044BF18C918C0BDE810405FEAD2
:10044000827C24BF51F8043B40F8043B08BF70474E
:10045000D20728BF31F8023B48BF11F8012B28BF53
:1004600020F8023B48BF00F8012B7047754600F0AA
:100470002BF8AE4605006946534620F00700854636
:1004800018B020B5FFF7F4FEBDE820404FF000069D
:100490004FF000074FF000084FF0000BAC46ACE8FF
:1004A000C009ACE8C009ACE8C009ACE8C00921F05B
:1004B00007018D46704710B50446AFF30080204613
:1004C000BDE81040FFF7BFBE004870471000002095
:1004D00001491820ABBEFEE7260002007047FEE788
:1004E000B0B5BA4CBC4D2046294600F0C7F828B13B
:1004F00020462946BDE8B04000F002B8B0BD00BFBC
:1005000010B56D4A564B0A401C1D8900584905D448
:10051000A04228BF01F580610A6010BDA04238BF2B
:100520000B1D1A6010BD00BF0268002922F00102F5
:1005300018BF013202607047016821F001010160BB
:100540000021016041608160C16001612121416140
:10055000CD4988422FD03449884230D0334988422F
:1005600031D03349884232D03249884233D032497F
:10057000884233D03149884233D03149884233D020
:100580003049884235D03049884235D02F49884299
:1005900036D02F49884237D02E4988423AD08B49ED
:1005A00088423AD02C4988423AD02C4988423AD1E4
:1005B0002F483D2136E02A484FF03D5132E02C488B
:1005C0004FF474612EE02A484FF474112AE0284851
:1005D0004FF0746126E02648244908E02448224967
:1005E00005E023481F4902E021484FF03D5141609A
:1005F00070471F483D210AE01D484FF4746106E032
:100600001B484FF4741102E019484FF07461C0F8B0
:10061000001470471248154904E01148124901E0DE
:100620000F48104901607047286002404060024056
:10063000586002407060024088600240A060024042
:10064000B8600240106402402864024040640240E6
:100650005864024070640240A0640240106002408E
:100660000C64024000003D20400F00203D000020AF
:1006700008600240006800F00100704710B50C4AA5
:100680000C4C02F10C03984204F5806038BF221D27
:100690003CBF46F20000C4F202008B0048BF104687
:1006A000006808400449084018BF012010BD00BF81
:1006B00004640240006002407D0F7D0F0B0604D5EC
:1006C000436952B143F080034361802911D04AB19C
:1006D000026801F01E0111430AE023F08002802924
:1006E000426106D06FF01E0262EA01010268114009
:1006F0000160704770B50268124B01F10C0670CEB4
:100700001A400B681A438B69224332431A43CB6960
:100710001A430B6A1A434B6A1A438B6A1A434B6B90
:100720001A438B6B1A430260CA6A436923F00703BA
:100730001A430B6B1A43426145604A6882608968BC
:10074000C16070BD3F801CF04160704710B590B033
:1007500000F0D5F91D4C2046FFF7EEFE2046FFF7CE
:1007600089FF0028FAD14FF4803100200A914FF41C
:1007700080710B90CDE90700CDE90C000E90099136
:100780004FF48061CDE90501CDE903011049204610
:1007900002912B4901914FF0006100916946FFF7EA
:1007A000A9FF0C480F900FA800F06EF92046102109
:1007B0000122FFF783FF08492046FFF7A1FE2046EC
:1007C0000121FFF7B1FE10B010BD00BF88640240E8
:1007D00074000020440001010008002010B590B012
:1007E00000F08DF9284C2046FFF7A6FE2046FFF7C3
:1007F00041FF0028FAD100204FF48031CDE90A01F1
:100800004FF480610C90CDE90800CDE90D000F9008
:10081000CDE906014FF40071204605914021049175
:100820001A490391064902914FF00061019101A913
:10083000FFF760FF20460021FFF776FE10B010BDE5
:100840000410014070B5104C0D4606464FF0205183
:100850002046FFF755FE0D4831462A46FFF765FD55
:1008600020460021FFF760FE2046FFF703FF002827
:10087000FAD120462946FFF767FF20460121BDE84F
:100880007040FFF751BE00BFB864024074040020FE
:100890007047000026490860704700BF70B50D46DC
:1008A00000F032F9092823D12D4E032D306820F4B1
:1008B000407030604FF4407038BF28023168084300
:1008C0003060306820F0F80030603068204340F03D
:1008D00002003060306840F48030306000F054F83E
:1008E000316821F002013160316821F0F801316096
:1008F00070BD00BF0E480168C90344BF01207047A6
:100900000168C90644BF062070470168C90544BF95
:1009100002207047016811F0E00F1CBF07207047EC
:10092000006880074FF0080058BF0920704700BFDB
:100930000C3C02400A48016841F0004101607047E8
:1009400070B500F0F0F8092809D1054E00F0E5F87F
:1009500000F0DDF82C7000F017F800F0E8F870BD3A
:10096000103C02400548C168B1F1FF3F00DD70470F
:100970000349016003490160704700BF043C024025
:1009800023016745AB89EFCDE0B509208DF807005D
:10099000FFF7B0FF8DF807009DF807000128F7D09A
:1009A0009DF807008CBD2DE9F043D1F800800023AD
:1009B0004FF0010E4FF0030C0026102E08BFBDE8CB
:1009C000F0830EFA06F918EA090F29D004680CFA28
:1009D00003F5AC43ED4304600C79076804FA03F2B5
:1009E0003A430260621E012A12D882682A4082605D
:1009F0004A798C7987689A403A438260426822EA51
:100A00000902426004FA06F2446892B2224342604C
:100A1000C2682A40C260CA79C4689A402243C26050
:100A200002330136C9E7B0B51C236FF003050F246C
:100A300003EA810305EA510108449C40016AA1438D
:100A4000016202FA03F1026A11430162B0BD00695A
:100A5000084018BF012070471CB502200121012465
:100A600000F06AF84FF4807069468DF807400090F6
:100A70004FF44070ADF804000148FFF794FF1CBD2F
:100A800000040240FEE7704770B5C2781149AAB170
:100A9000154A0723126845788678047823EA1222DB
:100AA0000F23D340C2F10402D2B2334005FA02F25E
:100AB0001A430B19120183F8002300E080310078FB
:100AC000012300F01F02C0F3421003FA02F241F8C2
:100AD000202070BD00E100E002490843024908609F
:100AE000704700BF0000FA050CED00E04FF4806194
:100AF0004FF48065FFF75EBC012100F029B84FF488
:100B00008000012100F018B80446FFF73DBF3060B7
:100B1000306840F0010030607047306820F4407069
:100B20003060306870470C460546FFF72DBF3168CE
:100B300021F0010131607047044A002911680CBF9F
:100B400021EA000008431060704700BF30380240BF
:100B5000044A002911680CBF21EA00000843106014
:100B6000704700BF20380240044A002911680CBFBA
:100B700021EA000008431060704700BF443802407B
:100B8000044A002911680CBF21EA000008431060E4
:100B9000704700BF2438024010B51C494A6802F073
:100BA0000C031B4A082B03D0042B17D1194A15E05C
:100BB0000B685B02174B58BF13460A68022402F009
:100BC0003F02B3FBF2F20B68C3F388135A430B687E
:100BD000C3F3014304EB4303B2FBF3F202600E4C98
:100BE0004B68C3F30313E35CDA4042604B68C3F322
:100BF0008223E35C22FA03F383604968C1F3423144
:100C0000615C22FA01F1C16010BD00BF04380240EE
:100C10000024F40000127A00C213000804490428DA
:100C20000A6822F0040208BF04320A60704700BF5D
:100C300010E000E01CB53348344CD0F8801041F48B
:100C40007001C0F8801030490A6842F001020A6061
:100C500000228A600B6823400B602D4B4B600B68B1
:100C600023F480230B60CA60019200920A6842F468
:100C700080320A600A6802F400320092019A01325E
:100C80000192009A1AB9019AB2F5A04FF2D10A68FE
:100C9000920354BF002201220092009A012A2CD113
:100CA0000A6C42F080520A641A4A136843F44043C3
:100CB00013608A688A608A6842F400428A608A689F
:100CC00042F4A0528A60144A4A600A6842F0807274
:100CD0000A600A689201FCD540F20572C1F800244E
:100CE0008A6822F003028A608A6842F002028A60FF
:100CF0008A6802F00C02082AFAD14FF00061016004
:100D00001CBD00BF08ED00E000380240FFFFF6FE0A
:100D100010300024007000400854400770B588B0BF
:100D2000E84C0546204600F069F901200121FFF753
:100D300003FF10200121FFF717FF04F5704609217A
:100D400007223046FFF76FFE30460A210722FFF7E1
:100D50006AFE184807904FF4C060069006A9304616
:100D6000FFF721FE0020ADF81400CDE902504FF44A
:100D70004020049002A9204600F0D4F90E480190CA
:100D800001A8FFF781FE2046012100F024F920464A
:100D900040F22441012200F0AFF9204680210122D7
:100DA00000F023F920464021012200F01EF908B08E
:100DB00070BD00BF0203000125010001F8B55B4CC6
:100DC0002078022818D001283FD0E8BB5F48654949
:100DD0000922FFF75FFA00287DD05C4862490822AB
:100DE000FFF758FA002800F08F8000F041FA002841
:100DF000FBD05EA0052176E04D484E4D4168B1F52F
:100E0000806F1ABF4068C0F580604FF48060A968A9
:100E1000E860B0F5806F0144A96002D06868814243
:100E200012D1FFF79FFDF320FFF734FD474F002657
:100E3000E868864237D2B95D2868FFF781FD2868E7
:100E4000013601302860F3E7F8BD3A493F480022F7
:100E50004A6010F8013B33B102EB820203EB42021D
:100E6000303A4A60F5E73A4B501E984214D23C485B
:100E70000023C1E902330860111800F0A8F902202C
:100E8000207000F0F5F90028FBD0304C2046FFF729
:100E90002DFA81B2204626E000F0EAF90028FBD0C6
:100EA0002CA009210BE0FFF745FDD5E901018142A6
:100EB0000AD100F0DDF90028FBD020A00D21FFF7BA
:100EC000C1FC0020207010E000F0D2F90028FBD017
:100ED00019A0022107E00120207000F0C9F90028C4
:100EE000FBD020480821FFF7ADFC1848FFF7FEFDB6
:100EF0000F4C00212046FFF717FB656020460121BB
:100F0000BDE8F840FFF710BB0320207000F0B0F9F7
:100F10000028FBD014480921FFF794FC00F0A8F941
:100F20000028FBD00E4800F0ADF9DEE77406002083
:100F300088640240000000204F4B0000646F776E11
:100F40006C6F6164206F7665720000007400002091
:100F5000FFFF070073697A654572726F72000000C7
:100F600000400008D2130008DB1300084572726FBE
:100F700072000000B0B5534C40F22441204600F00E
:100F8000A3F838B12088A0880A484178012902D105
:100F900001210170B0BD0848FFF7A8FD074C0021F2
:100FA0002046FFF7C1FA656020460121BDE8B04048
:100FB000FFF7BABA70000020740000208864024075
:100FC00080B54FF4E130FFF7A9FEFFF707FCBDE85D
:100FD0008040FFF7BBBB002918BF0121828922F4A2
:100FE000005242EA413181817047002A828A0CBF57
:100FF00022EA0101114381827047000080B52B492C
:1010000088421BD02A4988421FD02A49884223D0CF
:101010002949884227D0294988422BD0284988422B
:101020002FD06949884237D02649884218BF80BDF1
:1010300010200121FFF7A4FD102032E04FF4003012
:10104000FFF75AFD4FF4003021E04FF48020FFF706
:1010500053FD4FF480201AE04FF40020FFF74CFDC1
:101060004FF4002013E04FF48010FFF745FD4FF4DC
:1010700080100CE04FF08040FFF73EFD4FF08040C5
:1010800005E04FF00040FFF737FD4FF00040002132
:10109000BDE88040FFF75CBD20200121FFF770FD17
:1010A00020200021BDE88040FFF76ABD00440040D9
:1010B00000480040004C00400050004000780040D4
:1010C000007C004000100140C1F34212022A06D009
:1010D000012A14BF00F1140200F10C0201E000F13A
:1010E00010021288008801F01F03090ADA40C84084
:1010F000104000F00100704710B501F01F030124FB
:1011000004FA03F3C1F342141421022C08BF102186
:10111000012C08BF0C21002A42580CBF9A431A43E5
:10112000425010BD7FB504460D46C8886E46218AE0
:1011300021F4405108434EF6F3112082A089084063
:10114000A98808432989084369890843A081A88997
:10115000A18A21F440710843A0823046FFF71CFDAC
:10116000194944F480606FF06303884214BF06F1AC
:10117000080006F10C000068192101224843B4F967
:101180000C10B1F1FF3FC8BF02222968032591402E
:10119000B0FBF1F06421B0FBF1F202FB0300B4F903
:1011A0000C30B3F1FF3FC8BF0425A8403230B0FB7C
:1011B000F1F00721B3F1FF3FC8BF0F21084040EA1B
:1011C000021020817FBD00BF00140140FEE7B0B5D2
:1011D0000D4600F016F80446284600F012F80546C1
:1011E000FFF7C0FBF320FFF755FBAC4205D82046C4
:1011F0000221FFF753FB0834F7E7BDE8B040FFF7E3
:1012000099BB00F17841880B06D00138032805D23C
:10121000082101EBC00029E0002027E0B1F5003FE4
:1012200001D2202022E0B1F5802F01D228201DE03C
:10123000B1F5C02F01D2302018E0B1F5002F01D256
:10124000382013E0B1F5202F01D240200EE0B1F597
:10125000402F01D2482009E0B1F5602F01D2502083
:1012600004E00020B1F5801F38BF582080B27047DD
:1012700080B503484FF02051FFF700FA80BD00BF52
:10128000B864024072B64168006880F30888084775
:101290004FF4E060FFF720FCFFF7DEFBFFF790FE66
:1012A0006FF00400FFF7BAFC2BA02021FFF7CAFA69
:1012B000314E354F354C364D4FF000094FF0010A95
:1012C0004FF0000BBBF1060F2FD0FFF7D1FF002826
:1012D000FBD0BBF1000F07D0BBF1040F06D0BBF170
:1012E000020F07D127A002E024A000E024A00321E0
:1012F000FFF7A8FA7760C6F80890306840F0010060
:101300003060D6F8008020464FF48071FFF79FFBD5
:1013100020B108F001100128F3D001E085F800A009
:1013200028780BF1010B0128CCD1287810B9194885
:10133000FFF7A8FFFFF79CFF0028FBD016A00A21AB
:10134000FFF780FA174C002520780128FCD1FFF721
:1013500035FD2570F8E700BF7072657373206B650B
:10136000793020746F20656E74657220626F6F74BF
:101370006C6F61646572000010E000E033000000F3
:101380003100000032000000A037A000000402403D
:101390007100002000400008626F6F746C6F616420
:1013A0006572000070000020F1EE100A4FF6FF7128
:1013B000C0F2C03120EA010040F04070E1EE100AB6
:1013C0007047000000000102030401020304060745
:1013D0000809446F776E6C6F6164004578656375CA
:1013E00074650000081400080000002010000000D0
:1013F000EC0100081814000810000020680C000020
:101400000C0200080000000000400008000000007E
:081410000000000000000000D4
:040000050800018965
:00000001FF
